:020000040800F2
:100000000809002045020008F12E000863210008BD
:10001000ED2E0008051A00086738000800000000EF
:100020000000000000000000000000000D3100088A
:10003000BD1E0008000000009D2F000821320008AE
:100040005F0200085F0200085F0200085F0200080C
:100050005F0200085F0200085F0200085F020008FC
:100060005F0200085F0200085F0200085F020008EC
:100070005F0200085F0200085F0200085F020008DC
:100080005F0200085F0200085F0200085F020008CC
:100090005F0200085F0200085F0200085F020008BC
:1000A0005F0200085F0200085F0200085F020008AC
:1000B0005F0200085F020008853200085F02000846
:1000C0005F0200085F0200085F0200085F0200088C
:1000D0005F020008453600085F0200085F02000862
:1000E0005F0200085F0200085F0200085F0200086C
:1000F0005F0200085F0200085F0200085F0200085C
:100100005F0200085F0200085F0200085F0200084B
:100110005F0200085F020008BD3200085F020008AD
:100120005F0200085F0200085F0200085F0200082B
:1001300000F002F800F076F80AA090E8000C824483
:100140008344AAF10107DA4501D100F06BF8AFF260
:10015000090EBAE80F0013F0010F18BFFB1A43F0A5
:10016000010318474C9C00006C9C00000A444FF0AF
:10017000000C10F8013B13F0070408BF10F8014B06
:100180001D1108BF10F8015B641E05D010F8016B4B
:10019000641E01F8016BF9D113F0080F1EBF10F8AF
:1001A000014BAD1C0C1B09D16D1E58BF01F801CBD2
:1001B000FAD505E014F8016B01F8016B6D1EF9D555
:1001C0009142D6D37047000000230024002500266A
:1001D000103A28BF78C1FBD8520728BF30C148BFAA
:1001E0000B607047662908F0C485642900F0CC8054
:1001F000752900F0C980782900F00281632900F098
:100200001985732900F01E85002070471FB500F086
:1002100051FD04000020002107F09CFCE0601FBDA0
:1002200010B510BD00F08AFE1146FFF7EFFF05F094
:1002300007F900F0A8FE03B4FFF7F2FF03BC03F0D8
:1002400098FB00000948804709480047FEE7FEE7A1
:10025000FEE7FEE7FEE7FEE7FEE7FEE7FEE7FEE776
:1002600004480549054A064B70470000253200083E
:1002700031010008080300200809002008050020BB
:1002800008050020704710B54C1084EA530404D5CB
:100290004042C1F1000138BF491E1B4204D5524201
:1002A000C3F1000338BF5B1E00F0D2F914F0804F99
:1002B00004D04042C1F1000138BF491E14F0004F84
:1002C00004D05242C3F1000338BF5B1E10BD0000D2
:1002D0000FB4044910B503AA029800F0B7FC10BC93
:1002E0005DF814FBB001002070B504468569006814
:1002F000C10601D5302600E02026C00707D070BD1A
:10030000D4E9012130469047206A401C20626D1ECE
:10031000F6D570BD70B5044685690078C00707D171
:1003200070BDD4E9012120209047206A401C206242
:100330006D1EF6D570BD70B50C460546012A05D078
:100340002878800600D5EA69002302E0012305E051
:100350005B1C934202D2E05C0028F9D1A869E61840
:10036000C01AA861286A184428622846FFF7BCFF13
:1003700004E0D5E9012114F8010B9047B442F8D309
:100380002846FFF7C7FF70BD2DE9F041064600245F
:1003900010687529314616A510D0AFF300800028EB
:1003A00002DA404213A507E031688A0701D512A599
:1003B00002E0490704D511A5012401E0AFF3008054
:1003C00000210A2206F1240709E0B0FBF2FCB0FB91
:1003D000F2F302FB1C00303078541846491C002808
:1003E000F3D123462A463046BDE8F04100F0B2B9C9
:1003F000000000002D0000002B0000002000000085
:1004000070B504460D4621461068AFF30080218880
:10041000090502D50F4A7A4402E00E4A7A440E32A8
:10042000002104F1240305E000F00F060009965DA9
:100430005E54491C0028F7D120780023000704D51A
:10044000702D02D009B1022311322046BDE8704060
:1004500000F080B9949600002DE9F05F89460446CB
:100460004FF0000ADFF874B1FB44C0F820A020462A
:10047000E1688847002874D0252806D0D4E90121F6
:100480009047206A401C2062F1E700265F46204624
:10049000E16888472028054607DB312D05D2781909
:1004A00010F8200C08B10643F1E7B00701D526F09B
:1004B0000406C4F81CA00027C4F818A02A2D09D0EF
:1004C000284603F04FFA38B304EB8708303DC8F8EC
:1004D000185019E059F8041B204604EB870291617B
:1004E000E1688847012F054618D1E069002820DA25
:1004F00026F020061DE0D8F8180000EB800005EB80
:1005000040003038C8F818002046E16888470546A2
:1005100003F028FA0028EED1012F0AD02E2D08D1A1
:100520002046E16888477F1C0546022F46F02006DA
:10053000C4DBA069002803DA404246F00106A0614E
:10054000F00701D026F010066C2D0BD0682D09D0D5
:100550004C2D39D06A2D35D0742D35D07A2D33D02D
:1005600016E038E0E1682F4620468847B842054645
:1005700009D16C2F26D04FF48060E16806432046F5
:100580008847054604E06C2F1AD04FF4807006436C
:100590000DB3A5F14100192802D8203546F40066B4
:1005A0004A462946204626604E46FFF71BFE80B18C
:1005B00001280BD0F61D26F0070000F1080956E7C8
:1005C0004020E4E78020D8E70020D6E706F10409C0
:1005D0004DE7284652E7206ABDE8F09F6A96000082
:1005E00040EA010310B59B070FD1042A0DD310C8B0
:1005F00008C9121F9C42F8D020BA19BA884201D902
:10060000012010BD4FF0FF3010BD1AB1D30703D049
:10061000521C07E0002010BD10F8013B11F8014BFF
:100620001B1B07D110F8013B11F8014B1B1B01D11B
:10063000921EF1D1184610BD02F0FF0343EA0322D7
:1006400042EA024200F016BB70477047704770479D
:1006500053EA020C00F069802DE9F04B4FF00006E0
:10066000002B1FBFB3FA83F503FA05F424FA05F64D
:100670005E4012BF1643B2FA82F502FA05F4C5F1E4
:1006800020051EBF22FA05FC44EA0C04203556EA78
:10069000044C4FEA144418BF641C4FF000084FF09C
:1006A0000009904271EB030C39D3002919BFB1FA4C
:1006B00081F701FA07F6B0FA80F700FA07F6C7F1FA
:1006C00020071EBF20FA07FC46EA0C062037B6FBBF
:1006D000F4FCA7EB0507103F07F01F0BCBF120063A
:1006E0000CFA0BFB2CFA06F644BFB3460026202F6B
:1006F000A4BF5E464FF0000B5BEA060C08BF4FF04C
:10070000010B19EB0B09ABFB027C48EB0608C01B85
:1007100006FB02CC0BFB03CC71EB0C01C1E70B46D3
:10072000024641464846BDE8F08B13B54FF0000045
:100730004FF00001AFF30080BDE81C40704710B5DA
:1007400000F0BCFA006810BD10B5044600F0B6FA1F
:10075000046010BD2DE9F0470D46994692460446C7
:1007600000F124080168880604D5E06921F0100131
:10077000216000E00120A84201DD471B00E00027C6
:10078000A1697A1902EB0900081AA0612078C00655
:1007900002D42046FFF7A8FD002608E0D4E9012195
:1007A0001AF806009047206A401C761C20624E45CD
:1007B000F4DB2078C0060AD52046FFF795FD06E059
:1007C000D4E9012130209047206A401C2062381E65
:1007D000A7F10107F4DC07E0D4E9012118F80500CE
:1007E0009047206A401C2062281EA5F10105F3DC19
:1007F0002046FFF78FFD2078000602D50220BDE8D5
:10080000F0870120FBE770472DE9FF4F0C461E469D
:100810004FF0FF378BB0D2E90001DDF860800A901D
:100820008A46C1F30A5505B93D46002108464FF0F6
:100830000000BAF1000F00F4400005DA00EB800080
:100840004FF4400101EA50004FEA9059B9F1010F0D
:1008500000DDB9460A9850EA4A000ED044F610501E
:10086000A5F2FF3545432F14B8F1000F1ED0754295
:10087000291E1EDDC9F100021CE0B8F1010F4FF086
:10088000000001D0302103E0F24305E02154401C78
:10089000B042FBDB30460022002121540B99C1F805
:1008A0000880C1E900200FB0BDE8F08FBD1B6D1CB2
:1008B000DEE74A4600DA694206A800F0A1FA06AB74
:1008C00093E8070003AB83E8070050460A9900F05D
:1008D000A1FB8DE80700A0F500501F380090039899
:1008E000002D09DD42F21F014A46084403A9039086
:1008F000684600F000FE08E0A0F500504A461F38A8
:1009000003A90390684600F00AFE8DE80700000482
:10091000000C03D04FF0FF30410800E01046B8F162
:10092000000F03D00022009215461EE0751E05D46C
:1009300000F0C8F9303262556D1EF9D5B346012278
:10094000084302D000227F1C04E02078302801D127
:1009500000227F1E002A099786D01DE0112D07DA9C
:1009600000F0B0F9303262556D1C50EA0102F5D149
:10097000084302D00098C8B10EE00021681E05E0CF
:10098000235C625C63542254401E491C8142F7DBA5
:10099000AB46A81B401E0990002004F80B000B98E2
:1009A000099AC0F80880C0E9002B7CE711264FF0B7
:1009B000000859E72DE9F04F88460446D21D22F081
:1009C000070191B0D1E90001CDE90A0102F04DFF24
:1009D00002460B98C00F01D02D2007E02068810748
:1009E00001D52B2002E0202101EAC000032A099052
:1009F00001D0072A05DB03464146204600F0C0F936
:100A00000BE12078800601D5E06900E00620B8F10E
:100A1000650F814606D0B8F1660F18D0B8F1670FA0
:100A200070D131E00020B9F1110F009001DB1123EA
:100A300001E009F101030AAA01A90CA8FFF7E4FEED
:100A4000DDE90C70002609F10105834647E001202D
:100A50004B4600904FF000470AAA01A90CA8FFF7E7
:100A6000D3FEDDE90DB00C995D46002610B909F101
:100A700001000D18B9EB050003D4C0F1FF3609F1F0
:100A80000105A5EB09002BE0B9F1010F01DA4FF0E8
:100A900001090020B9F1110F0090484601DD112332
:100AA00000E003460AAA01A90CA8FFF7ADFEDDE9A4
:100AB0000C704D4600268346207800070AD4AB45CB
:100AC00000DA5D4601A8012D04DD411911F8011C71
:100AD000302907D04F4502DA17F1040F04DA01205C
:100AE00082460FE06D1EEEE7002F02DCED1B3E4458
:100AF00003E0781CA84200DD7D1CB81B00F1010A50
:100B00004FF000472078000703D4AA4501DB4FF0DF
:100B1000FF3A0021B7F1004F0DF143088DF8431063
:100B200024D002202B23002F01DA7F422D230A211B
:100B3000021EA0F1010000DC5FB197FBF1FC97FB06
:100B4000F1F201FB1C7C17460CF1300C08F801CDCA
:100B5000EEE7A8F1010003702188090501D54521C0
:100B600000E06521A0F1010800F8011C09980FA917
:100B7000A1EB0807FF1D00B10120411901EBEA704C
:100B8000A1693844081A401EA0612078C00602D42A
:100B90002046FFF7A9FB099828B1D4E90121904725
:100BA000206A401C20622078C00622D52046FFF72C
:100BB0009BFB1EE0002E04DBB34502DD01A8805D37
:100BC00000E03020D4E901219047206A401C2062D7
:100BD000761CAAF101005FEA000A0AD100F06AF867
:100BE000C0680168405CD4E901219047206A401C3C
:100BF0002062281EA5F10105DCDC07E0D4E9012113
:100C000018F8010B9047206A401C2062381EA7F19B
:100C10000107F3DC2046FFF77DFB032011B043E61C
:100C200010B5436913B1AFF3008001E0FFF783FB18
:100C3000012010BD127800F124010A7000224A70D0
:100C40000122EDE711684FF0FF32E9E7074B70B57D
:100C50000D467B4400F081F80446284600F03EF93A
:100C600010B14FF0FF3070BD204670BDCF40000086
:100C70004FF000020429C0F0128010F0030C00F0C5
:100C80003381CCF1040CBCF1020F18BF00F8012B2A
:100C9000A8BF20F8022BA1EB0C0100F025B95FEAF8
:100CA000C17C24BF00F8012B00F8012B48BF00F8DD
:100CB000012B704700487047C4020020004870476D
:100CC000A402002030B5B0F10A024FEA900E71F193
:100CD00000034EEA817EB0EB0E0061EB91014FEA1A
:100CE000101E4EEA017E10EB0E0041EB11114FEA8F
:100CF000102E4EEA016E10EB0E0041EB11214FEA6F
:100D0000104E4EEA014E10EB0E0041EB114140181F
:100D100041F100014FEAD00040EA41704FEAD101B1
:100D200010EB80054FEA810444EA907444EB01041F
:100D30006D1944EB0404521BA3414FF0000348BF5C
:100D40000A3200D530BD401C41F1000130BD000029
:100D500001694A1C02610878704700B58FB0CDE97F
:100D600001310021059105497944CDE9031011466F
:100D70006846FFF771FB0FB000BD0000E5FFFFFF05
:100D80002DE9F0411F46044603260168072A01F4B5
:100D9000006004DB08B116A505E016A503E008B164
:100DA00015A500E015A521F010002060A069C01E67
:100DB000A0610FB1401EA0612046FFF795FA4FB128
:100DC000D4E9012138469047206A401C2062C01CAB
:100DD000206206E0206AFAE7D4E9012115F8010B48
:100DE0009047761EF8D22046FFF794FABDE8F081CE
:100DF0004E414E006E616E00494E4600696E6600BF
:100E00002DE9F047814616468AB0334878440DC82C
:100E10008DE80D0030487844801C03AC0DC884E890
:100E20000D0041F69B300844372190FBF1F290FB16
:100E3000F1F5A5F1800501FB12041B3C02D56442CB
:100E4000012000E00020DFF890A080460027FA444F
:100E5000AAF1BE0A0DE0E00709D03246684607EB6A
:100E600047010AEB810100F05AFB8DE8070064108E
:100E70007F1C002CEFD1184F7F44AC3F18E0E807EF
:100E800014D007EB04100DF1180A90E80E008AE860
:100E90000E00C068F04201D198190890324606A9A8
:100EA00003A800F03CFB03AB83E807006D10641C53
:100EB000002DE4D132466946B8F1000F03A802D0F4
:100EC00000F019FB01E000F02AFBC9E90001C9F8B4
:100ED00008200AB0BDE8F087448E0000007B00F0D7
:100EE000800070474FF0000200B5134694469646C6
:100EF000203922BFA0E80C50A0E80C50B1F120012D
:100F0000BFF4F7AF090728BFA0E80C5048BF0CC0DA
:100F10005DF804EB890028BF40F8042B08BF704738
:100F200048BF20F8022B11F0804F18BF00F8012BAA
:100F30007047000000487047A40200207546FFF784
:100F4000F9FFAE4605006946534620F00700854686
:100F500018B020B5FFF784F9BDE820404FF0000637
:100F60004FF000074FF000084FF0000B21F0070191
:100F7000AC46ACE8C009ACE8C009ACE8C009ACE8D4
:100F8000C0098D4670470446AFF300802046FFF746
:100F900052F900004FF0013C50F8042B51F8043B8B
:100FA0009A4221D1A2EB0C03934313EACC1317D13D
:100FB00050F8042B51F8043B9A4215D1A2EB0C03D4
:100FC000934313EACC130BD150F8042B51F8043B94
:100FD0009A4209D1A2EB0C03934313EACC13DBD062
:100FE0004FF00000704700BFD01A01BAB1FA81F18A
:100FF00001F0180122FA01F0CB40C1F12001DBB26F
:10100000C0B2C01A2CFA01F3D11A914311EAC311EC
:10101000E6D170475FEA400C08BF91F0000F4FEA3D
:101020008C234FEAC12243EA51514FEA1C5018BFAA
:1010300000F5F0404FEA300018BF41F000415FEA90
:101040006C5C00F02980BCF1FF3F08BF40F080409D
:101050007047130C06BF12044FF0100C4FF0000C39
:10106000130E04BF12020CF1080C130F04BF12017F
:101070000CF1040C930F04BF92000CF1020CD30F7F
:1010800004BF52000CF1010C11464FF00002A0F118
:101090001F00A0EB0C00704711F0004F08BF704715
:1010A00031F000413FF4D5AF0B0C06BF09044FF0FF
:1010B000100C4FF0000C0B0E04BF09020CF1080CD1
:1010C0000B0F04BF09010CF1040C8B0F04BF890046
:1010D0000CF1020CCB0F04BF49000CF1010CCCF158
:1010E0002003A0EB0C0022FA03F302FA0CF241EA0F
:1010F000030100F10100704720F07F4C80EA0300FB
:1011000023F07F47ACEB070303F57C5300F000406E
:1011100003F1FF032DE980494FEA154B09B44FEA6B
:10112000144325EA0B4E24EA03480FF2042606EB8B
:10113000132749083E785FEA320203FB0667C7F5CA
:10114000000707FB06F64FEA54374FEAD64606F18A
:10115000020607FB066CCCF1005C4FEA1C472CEA48
:10116000074C07FB06F40CFB06F504EB15464FEAAB
:10117000961634BF00204FF000404FEAD13706FBEF
:1011800007FC4FEA1C4C0CFB0BF7D21B03FB0CF7C4
:1011900061EB07010CFB0EF7B0EB074072EB174257
:1011A0000CFB08F734BFA2EB0742B2EB074261EB3E
:1011B00017414FEA0C444FEA910706FB07FC4FEA40
:1011C0001C4C0CFB0BF7B0EBC74072EB573203FB28
:1011D0000CF734BFA2EBC742B2EBC74261EB573109
:1011E0000CFB0EF7B0EBC70072EB57720CFB08F765
:1011F00034BFA2EBC702B2EBC70261EB5771039F8A
:101200004FEA816141EA921104EBCC044FEAD137F5
:101210004FEA826206FB07FC42EA90124FEA8060C6
:101220004FEA1C4C0CFB0BF7D21B03FB0CF761EBDA
:1012300007010CFB0EF7B0EB074072EB17420CFBFB
:1012400008F734BFA2EB0742B2EB074261EB17414C
:101250004FEA8C554FEA910704EB9C2406FB07FCF0
:101260004FEA1C4C0CFB0BF7B0EBC74072EB57324C
:1012700003FB0CF734BFA2EBC742B2EBC74261EBF2
:1012800057310CFB0EF7B0EBC70072EB57720CFB3B
:1012900008F734BFA2EBC702B2EBC70261EB57718C
:1012A00015EB4C254FEA816141EA92114FEA8262C7
:1012B0004FEAD13742EA901206FB07FC44F10004E2
:1012C0004FEA80604FEA1C4C0CFB0BF7D21B03FB70
:1012D0000CF761EB07010CFB0EF7B0EB074072EB6C
:1012E00017420CFB08F734BFA2EB0742B2EB0742F0
:1012F00061EB174115EB1C154FEA813141EA924130
:101300004FEA823242EA90424FEA80304FEA0C764E
:1013100044F1000448EA03434EEA0B484FF0000E44
:10132000B2EB080C71EB030724BF624639464EEB63
:101330000E0E4FF0000B0018524149414BEB0B0BC6
:10134000B2EB080C71EB03077BF1000B24BF624684
:1013500039464EEB0E0E4FF0000B0018524149413A
:101360004BEB0B0BB2EB080C71EB03077BF1000BA3
:1013700024BF624639464EEB0E0E51EA020718BFF3
:1013800046F0010616EB0E7655F1000254F100010D
:1013900003D5BDE88901BDE80088BDE88901BDE845
:1013A0000048B619524141EB0101A3F10103704716
:1013B00080807F7E7D7C7B7A797877767675747392
:1013C000727171706F6E6E6D6C6C6B6A6A69686851
:1013D000676666656464636362616160605F5F5EE7
:1013E0005E5D5D5C5C5B5B5A5A595958585757565D
:1013F00056555555545453535252525151505050C2
:101400004F4F4F4E4E4D4D4D4C4C4C4B4B4B4A4A13
:101410004A49494948484847474747464646454557
:101420004544444444434343434242424241414190
:10143000002B26D4770021D01CB54FEA370703B420
:101440004FF010004FF010014FF000000FBCBDE84E
:1014500010400BF1010BBBF1010F08BF5FEA17074A
:1014600022BF12F1010211F101014FF0004143F1DD
:10147000000300F0004043EA00007047F9D357082A
:10148000DAE746EA064613F1400F4FEA16461FDD3B
:1014900013F1200FDFBF16430A46002120335B42C1
:1014A000C8D0C3F1200746EA064602FA07F74FEA1A
:1014B000164646EA0706C3F1200722FA03F201FAAC
:1014C00007F721FA03F14FF0000342EA0702B1E700
:1014D00046EA020646EA06464FEA164646EA01068C
:1014E000BCBF46EA0646360C4FF000034FF0000240
:1014F0004FF000019EE72DE9C048934630B491E8D3
:10150000380007C831EA400C48BF34EA430C03D521
:10151000FFF7F2FDFFF78CFFF0BCBDE800882DE976
:10152000C048934630B491E8380007C810F0804FA7
:1015300008BF13F0804F03D100F005F8FFF778FFE4
:10154000F0BCBDE8008820F07F4780EA030023F06C
:101550007F4C07EB0C03A3F57C5300F00040A3F194
:10156000FE0392F0000F00F0B38095F0000F00F042
:1015700077802DE901494FEA11404FEA144621EAEC
:10158000004800FB06FC24EA064708FB06F607FBBA
:1015900008F800FB07F718EB06484CEB164C4FEA2F
:1015A000124B18EB07484FEA15464CEB174022EA5E
:1015B0000B4E0BFB06FC25EA06470EFB06F607FB67
:1015C0000EFE0BFB07F71EEB064E4CEB164C4FF0D6
:1015D00000061EEB074E4CEB174B18EB0B0840F1C7
:1015E000000018EB0E0B58EB000840F100008F1ABA
:1015F0004FF000013CBFC943661B14BFB5EB040CA0
:1016000000213CBFC943F61B4FEA17444EEA8E0E39
:1016100027EA04454FEA1C4704FB07622CEA074C03
:1016200005FB07F70CFB05F604FB0CFC16EB074665
:1016300042EB174216EB0C4642EB1C421BEB060634
:1016400058EB0202414146EA9E0601D5BDE80189F8
:10165000B619524141EB0101A3F10103BDE8018933
:101660004FEA14454FEA114724EA054621EA074CA0
:1016700005FB07F406FB07F70CFB06F105FB0CFC6A
:1016800011EB074144EB17444FEA124711EB0C41B1
:1016900044EB1C4422EA074C05FB07F206FB07F764
:1016A0000CFB06F605FB0CFC16EB074642EB17425B
:1016B00016EB0C4642EB1C456A1854F1000148BF7A
:1016C0007047B619524141EB0101A3F10103704784
:1016D00095F0000F37D04FEA11424FEA144721EA44
:1016E000024624EA074C02FB07F106FB07F70CFB56
:1016F00006F402FB0CFC14EB074441EB17414FEAE4
:10170000154714EB0C4441EB1C4125EA074C02FB46
:1017100007F506FB07F70CFB06F602FB0CFC16EBC5
:10172000074645EB174516EB0C4645EB1C421219D4
:1017300051F1000148BF7047B619524141EB010118
:10174000A3F1010370474FEA14454FEA114724EA19
:10175000054621EA074C05FB07F106FB07F70CFBE2
:1017600006F24FF0000605FB0CFC12EB074241EBC2
:10177000174112EB0C4251EB1C4148BF70479218C5
:1017800041EB0101A3F10103704721B1826842F0EE
:101790000102826003E0826822F0010282607047E9
:1017A00010B504461248844208D10121401501F0C9
:1017B00033FC0021601501F02FFC17E00D48844236
:1017C00008D10121001501F027FC0021201501F0AE
:1017D00023FC0BE00848844208D10121C80301F032
:1017E0001BFC00214FF4004001F016FC10BD00006E
:1017F0000024014000280140003C01400146002037
:101800008A6802F004020AB1012000E0002070475B
:101810000146C86C80B270470246002013680B4036
:101820000BB1012000E000207047014600208A68CB
:1018300002F008020AB1012000E000207047000019
:1018400030B502460020002350680F4C20400D792F
:101850000C6844EA05242043506090680B4C2040FB
:10186000D1E902542C434D7944EA45042043906069
:10187000D06A20F470000C7C641EE4B2234340EA7A
:101880000350D06230BD0000FFFEF0FFFDF7F1FF16
:10189000F0B504460D4600200021092D11DDE06859
:1018A000A5F10A0606EB4607072606FA07F1884364
:1018B000A5F10A0606EB460603FA06F10843E060C6
:1018C0000CE0206905EB4507072606FA07F1884377
:1018D00005EB450603FA06F108432061072A0FDAF3
:1018E000606B561E06EB86071F2606FA07F1884333
:1018F000561E06EB860605FA06F10843606322E0F1
:101900000D2A0FDA206BD61F06EB86071F2606FA74
:1019100007F18843D61F06EB860605FA06F1084351
:10192000206310E0E06AA2F10D0606EB86071F2691
:1019300006FA07F18843A2F10D0606EB860605FAC2
:1019400006F10843E062F0BD816841F00801816062
:10195000704721B1826842F4A002826003E082688D
:1019600022F4A00282607047816841F00401816026
:101970007047000000B587B001214FF4017001F0FD
:101980003BFB4FF4804001F00BFB00208DF81B0067
:101990000E20ADF8180006A9184800F0ACFA184857
:1019A000FFF7FEFE01208DF80900002004904FF49F
:1019B000602003900020019001208DF81400002089
:1019C0008DF8080001A90E48FFF73AFF01210C48E5
:1019D000FFF7DBFE0A48FFF7B7FF00BF0848FFF735
:1019E00024FF0028FAD10648FFF7BEFF00BF0448D5
:1019F000FFF704FF0028FAD107B000BD000801403E
:101A00000024014000BFFEE710B50021014801F0AD
:101A10006FFC10BD0010004010B500241548006890
:101A200020F07040134908600846006840F000400C
:101A3000086004E0601CC4B2012002F073FB0E4891
:101A4000006808B1642CF5DB642C01DB012010BDBB
:101A5000002404E0601CC4B2012002F063FB0648CD
:101A6000006808B9642CF5DB642C01DB0120EEE78B
:101A70000020ECE7002001401C01244208B50121B0
:101A8000080201F0B9FA8020ADF8000010208DF8AE
:101A9000030003208DF802006946064800F02BFA87
:101AA0008021044800F005FB00F0A0F8FFF7B4FF28
:101AB00008BD00000020014010B5002404E0601CB7
:101AC000C4B2012002F02EFB0D48006808B1642C5E
:101AD000F5DB002404E0601CC4B2012002F022FB0C
:101AE0000748006808B9642CF5DB282002F01AFBCF
:101AF0000348006808B1012010BD0020FCE7000089
:101B00001C01244270B50024002506E06006040E86
:101B1000FFF7D2FF0443681CC5B2082DF6DB204650
:101B200070BD00002DE9FC4104460D4600202860F0
:101B3000206000F05BF8FFF76FFF00284FD1002610
:101B400005E0FFF7DFFF0DF80600701CC6B2052E9A
:101B5000F7DB9DF800009DF8011008449DF8021085
:101B600008449DF803100844C7B29DF80400B84229
:101B70001AD19DF801109DF8002001EB022006F01B
:101B800025FF8046184906F0EFFD28609DF80310F8
:101B90009DF8022001EB022006F018FF8046124952
:101BA00006F0E2FD20601DE09DF801109DF8002088
:101BB00001EB022006F00AFF80460B4906F0D4FD37
:101BC00028609DF803109DF8022001EB022006F02A
:101BD000FDFE8046044906F0C7FD206002E00120BA
:101BE000BDE8FC810020FBE70000204110B50C4857
:101BF000006820F070400A4908600846006840F01C
:101C0000405008600020074908601E2002F064FA76
:101C100001200549C1F89C011E2002F083FA10BD85
:101C2000002001409C0124420000244210B5002401
:101C30001548406820F470401349486008464068E1
:101C400040F40040486004E0601CC4B2012002F08F
:101C500069FA0E48006808B1C82CF5DBC82C01DB16
:101C6000012010BD002404E0601CC4B2012002F079
:101C700059FA0648006808B9F02CF5DBF02C01DBB6
:101C80000120EEE70020ECE7002001402C01244277
:101C90002DE9F84F00F0CCF800F0A8F8FFF7C6FFE8
:101CA000CC2000F0D1F8BE2000F0CEF800F08CF887
:101CB000834600F089F80446072C08DDE043C4B2EF
:101CC0006FEA0B0000F0FF0B4FF0000A01E04FF04D
:101CD000010AA1464FEA09200FFA80F909EB0B002F
:101CE0000FFA80F9484606F071FE009006F0A2FC5B
:101CF00007460022084B06F0C3F9054606F07AF9BC
:101D00000FFA80F9BAF1000F02D04846BDE8F88F0B
:101D1000C9F1000000B2F9E70000E43F08B5012175
:101D2000080201F069F94FF40060ADF800001020DE
:101D30008DF8030003208DF802006946064800F084
:101D4000DAF84FF40061044800F0B3F900F04EF8FF
:101D5000FFF76CFF08BD00000020014010B51748D8
:101D6000406820F47040154948600846406840F4D7
:101D700040504860002012490860022002F0D2F969
:101D800001201049C1F8AC010C48406820F47040B3
:101D90000A4948600846406840F4004048600C200A
:101DA00002F0C0F906488038006808B1012400E05C
:101DB0000024322002F0B6F9204610BD0020014078
:101DC000AC0124420000244270B50026012508E041
:101DD000FFF7C4FF0446E00140EA6600C6B2681C93
:101DE000C5B2082DF4DD304670BD000010B50D48B9
:101DF000406820F470400B4948600846406840F451
:101E00004050486000200849086040F2EE2002F08F
:101E100089F901200549C1F8AC010F2002F082F9CF
:101E200010BD000000200140AC012442000024420B
:101E300010B5FFF7DBFFFFF7F9FECC2000F004F848
:101E4000442000F001F810BD70B504461848406801
:101E500020F47040164948600846406840F44050FD
:101E60004860012520E004F0010664106EB10020F6
:101E700010490860022002F055F901200E49C1F80E
:101E8000AC013C2002F04EF90CE00020094908604A
:101E90003C2002F047F901200749C1F8AC010220BB
:101EA00002F040F9681CC5B2082DDCDD70BD0000F1
:101EB00000200140AC012442000024427047002170
:101EC00009E0002201E0531C9AB242F614039A4240
:101ED000F9DB4B1C99B28142F3DB7047002107E02C
:101EE000002201E0531C9AB2092AFBDB4B1C99B279
:101EF0008142F5DB70472DE9F041024600250026BE
:101F0000002000230024002791F803C00CF00F05E7
:101F100091F803C00CF0100CBCF1000F03D091F845
:101F200002C04CEA050591F800C0BCF1000F31D0A9
:101F3000146800202BE04FF0010C0CFA00F3B1F80C
:101F400000C00CEA03069E4220D183004FF00F0C24
:101F50000CFA03F7BC4305FA03FC4CEA040491F8BD
:101F600003C0BCF1280F06D14FF0010C0CFA00FCA5
:101F7000C2F814C00AE091F803C0BCF1480F05D1C3
:101F80004FF0010C0CFA00FCC2F810C0401C0828ED
:101F9000D1D31460B1F800C0BCF1FF0F34DD546838
:101FA00000202EE000F1080C4FF0010808FA0CF3B5
:101FB000B1F800C00CEA03069E4221D183004FF025
:101FC0000F0C0CFA03F7BC4305FA03FC4CEA0404BB
:101FD00091F803C0BCF1280F05D100F1080C08FAF4
:101FE0000CF8C2F8148091F803C0BCF1480F07D177
:101FF00000F1080C4FF0010808FA0CF8C2F8108044
:10200000401C0828CED35460BDE8F081F0B50A46E4
:10201000002300240021002500F00046B6F1004F07
:1020200002D11D4EF16901E01B4E7168C0F30345FA
:1020300083B200F44016B6F5401F08D121F070615C
:10204000154E766826F07066134F7E6012E000F43D
:102050008016B6F5801F06D1032606FA05F4A143C3
:1020600041F0706106E0460D360103FA06F6B14311
:1020700041F0706122B1460D360103FA06F6314394
:1020800000F00046B6F1004F02D1034EF16101E0CD
:10209000014E7160F0BD00000000014002460020CA
:1020A00093680B400BB1012000E0002070474161B4
:1020B000704701617047000010B500BF08480088F4
:1020C0004FF47A7100FB01F4064801F011FA044460
:1020D0000020044988843220FFF7F1FE204610BD1D
:1020E000620000200010004010B5044600230122C9
:1020F00021460F48FFF7CCFB0023022221460C4863
:10210000FFF7C6FB0023032221460948FFF7C0FB67
:1021100001210748FFF71DFC00BF02210448FFF71B
:102120007BFB0028F9D00248FFF772FB10BD0000CE
:10213000002401402DE9F04107460C460025002609
:1021400008E03846FFF7D0FF0544052001F0C4FF42
:10215000701CC6B2A642F4DBB5FBF4F080B2BDE859
:10216000F08100BFFEE700002DE9F84F4FF0000AB4
:102170000024A346A14631E0012021490860142033
:10218000FFF7ACFE00201F49C1F89C0100BF1C48AE
:102190007C3800680028FAD000F0EEFE641C00BF16
:1021A00017487C3800680128FAD0FFF72DFCFFF7AC
:1021B00083FF8246504606F021FC009006F03AFA72
:1021C00007460022104B05F0BDFD054605F0D8FC82
:1021D00083464946584606F059FA8146052CCBD12C
:1021E000484606F027FA07460022084B05F0AAFDEC
:1021F000054605F0C5FC83465846BDE8F88F00004B
:102200009C8123420080234200004D400000144086
:102210001FB50121802000F0EFFE8020ADF8000006
:1022200003208DF8020010208DF8030069461F4836
:10223000FFF761FE80211D48FFF739FF4FF48070E2
:10224000ADF8000004208DF8030069461748FFF739
:1022500052FE4FF480711548FFF729FF012110202D
:1022600000F0AAFE4FF0804001F04EF840F2E73057
:10227000ADF808004720ADF804000020ADF80A00D2
:10228000ADF8060001A90A4801F05CF901210848EF
:1022900001F028F801221146054801F046F903F043
:1022A00069F80021024801F023F81FBD001C01401D
:1022B000001000402DE9F84F6B46022241216820B2
:1022C00000F0F5F99DF801009DF8001040EA0120AA
:1022D0000FFA80FA504605F0BCFE804600220B4BF8
:1022E00005F030FD06460A4A0A4B05F07BFC044621
:1022F00005F046FC83460849584606F0C7FB0446ED
:1023000006F028FB00B2BDE8F88F000000407540E1
:10231000A4703D0AD74342400000C84210B50020D7
:102320000E4908600E48006820F470400C490860AF
:102330000846006840F44050086000200949C1F890
:10234000AC0100F011F801200449086000F00CF81D
:1023500000200449C1F8A80110BD0000A881214255
:10236000040C01400080214210B5022001F0DAFE89
:1023700010BD000008B50121082000F03DFE4FF41B
:102380004060ADF8000010208DF8030003208DF8A8
:10239000020069460448FFF7AEFD4FF44061024871
:1023A000FFF787FE08BD0000000C014010B50020BB
:1023B0000E4908600E48006820F470400C4908601F
:1023C0000846006840F44050086001200949C1F8FF
:1023D000AC01FFF7C9FF012004490860FFF7C4FF03
:1023E00000200449C1F8A80110BD0000A8812142C5
:1023F000040C01400080214270B5054600241648B7
:10240000006820F47040144908600846006840F4F1
:1024100000400860002614E0002010490860FFF723
:10242000A3FF01200E49C1F8A8016006040E0B4865
:102430007C38006808B1601CC4B2FFF795FF701CBF
:10244000C6B2082EE8DB15B9FFF7B0FF01E0FFF7D1
:1024500065FF204670BD0000040C0140A8812142A8
:102460000080214270B504461248006820F4704094
:10247000104908600846006840F440500860002099
:102480000D490860002512E0E0090B49091D0860AC
:102490006006040E01200949C1F8A801FFF764FF96
:1024A000002005490860FFF75FFF681CC5B2082DD2
:1024B000EADB70BD040C0140A8812142008021426A
:1024C00010B50E48006820F470400C4908600846BA
:1024D000006840F44050086001200949086009493B
:1024E000C1F8A801FFF740FF002005490860FFF789
:1024F0003BFF00200349C1F8A80110BD040C0140B6
:10250000AC8121420080214210B50E48006820F4C1
:1025100070400C4908600846006840F4405008606C
:102520000020094908600949C1F8AC01FFF71CFF08
:102530000120054908600549C1F8AC01FFF714FF07
:1025400010BD0000040C0140A881214200802142FE
:1025500010B500241448006820F470401249086047
:102560000846006840F40040086001200F490860F8
:10257000FFF7FAFE01200E49C1F8A801FFF7F4FEAB
:1025800007E0601CC4B2FA2C03DDFFF7BDFF012099
:1025900010BD0648803800680028F2D10349091FA1
:1025A000086000BFF4E70000040C0140AC81214248
:1025B0000080214238B50121084600F01DFD0121AF
:1025C000042000F019FD4FF40040ADF80000102089
:1025D0008DF8030003208DF8020069462248FFF7BA
:1025E0008AFC01212148FFF711FD002020490860E5
:1025F000FFF7C0FE80216B2000F0DDF8642001F0C1
:102600006BFD00216B2000F0D6F8032000F091F85C
:10261000002000F086F8322000F0B0F800213820C9
:1026200000F0C9F800216A2000F0C5F8002123203D
:1026300000F0C1F88021372000F0BDF8752000F0CF
:1026400019F80446682C0BD101216B2000F0B3F877
:1026500000216C2000F0AFF8322000F08FF801E08C
:10266000012038BD0020FCE70008014000023000D6
:10267000BC01214270B50446FFF722FFD020FFF7CE
:10268000F1FEFFF765FF2046FFF7ECFEFFF760FF66
:10269000FFF716FFD120FFF7E5FEFFF759FF0020F7
:1026A000FFF7AAFE0546FFF72FFF284670BD2DE96C
:1026B000F04106460F4614461D46FFF701FF002174
:1026C00041EA4601C8B2FFF7CDFEFFF741FF20B156
:1026D000FFF71AFF0120BDE8F0813846FFF7C2FE80
:1026E000FFF736FFFFF7ECFE012101EB4601C8B210
:1026F000FFF7B8FEFFF72CFF0DE0012C04D10020FE
:10270000FFF77AFE287003E00120FFF775FE2870BE
:10271000601EC4B26D1C002CEFD1FFF7F5FE002047
:10272000D9E710B50446E006010E1C2000F043F87E
:1027300010BD10B50446E006010E1B2000F03BF86A
:1027400010BD70B504460025BC2C01DB012510E04E
:10275000622C01DB02250CE02A2C01DB032508E0BA
:10276000142C01DB042504E00A2C01DB052500E024
:10277000062529461A2000F01EF870BD70B50446E3
:10278000B4F57A7F01DD4FF47A74042C00DA042466
:102790004FF47A7090FBF4F0401EC5B22946192020
:1027A00000F009F80546264604EBD671C1F34F0048
:1027B000FFF7C7FF70BD70B505460C46FFF780FEFA
:1027C000D020FFF74FFEFFF7C3FE18B1FFF79CFEC6
:1027D000012070BD2846FFF745FEFFF7B9FE2046F1
:1027E000FFF740FEFFF7B4FE18B1FFF78DFE0120A2
:1027F000EFE7FFF789FE0020EBE72DE9F041054602
:102800000E4617469846FFF75BFE002141EA450158
:10281000C8B2FFF727FEFFF79BFE20B1FFF774FE5B
:102820000120BDE8F0813046FFF71CFEFFF790FE67
:1028300000240CE018F80400FFF714FEFFF788FEF0
:1028400018B1FFF761FE0120EBE7601CC4B2BC4287
:10285000F0DBFFF759FE0020E3E7000008B5012197
:10286000812000F0C9FB01213748FFF7CFFB022090
:10287000ADF8000010208DF8030003208DF8020051
:1028800069463248FFF737FB0820ADF800001020FA
:102890008DF8030003208DF8020069462B48FFF7EE
:1028A0002AFB1020ADF800008DF8030003208DF8FE
:1028B000020069462548FFF71EFB10208DF8030033
:1028C00003208DF802002020ADF8000069461F4863
:1028D000FFF711FB4FF48050ADF8000028208DF871
:1028E000030003208DF8020069461848FFF703FB38
:1028F0004FF40050ADF8000028208DF803000320AD
:102900008DF8020069461148FFF7F5FA4FF4804050
:10291000ADF8000028208DF8030003208DF8020098
:1029200069460A48FFF7E7FA28208DF803000320DC
:102930008DF802004FF40040ADF8000069460348EE
:10294000FFF7D9FA08BD000000023000001C01406A
:1029500010B5FF240221F548FFF7ABFB0821F3482F
:10296000FFF7A7FB1021F148FFF7A3FB2021EF4859
:10297000FFF79FFB4FF48051EC48FFF78FFB0128D6
:1029800014D04FF40051E948FFF788FB01280DD01F
:102990004FF48041E548FFF781FB012806D04FF452
:1029A0000041E248FFF77AFB01287DD10A2001F0BF
:1029B00093FB4FF48051DD48FFF770FB012814D0E2
:1029C0004FF40051D948FFF769FB01280DD04FF4AF
:1029D0008041D648FFF762FB012806D04FF4004142
:1029E000D248FFF75BFB01287DD1D1480078002851
:1029F000FAD10120CE4908700221CC48FFF759FBDB
:102A00000821CA48FFF753FB1021C848FFF74FFBC6
:102A10002021C648FFF74BFB4FF48051C348FFF716
:102A20003DFBC44908704FF40051C048FFF736FB26
:102A3000C14908704FF48041BC48FFF72FFBBF49E4
:102A400008704FF40041B948FFF728FBBC490870F3
:102A5000B8480078012809D1B748007830B9B7489C
:102A6000007818B90846007800B90424B148007805
:102A700050B9B1480078012806D1B048007818B99B
:102A8000AF48007800B90824AA48007850B9AA488D
:102A9000007838B9A9480078012803D1A8480078FF
:102AA00000B90C24A34800E03BE1007850B9A248EB
:102AB000007838B9A148007820B9A14800780128E9
:102AC00000D1102402219948FFF7F1FA0821974814
:102AD000FFF7EFFA10219548FFF7E9FA2021934814
:102AE000FFF7E5FA00E01FE14FF480518F48FFF750
:102AF000D5FA904908704FF400518C48FFF7CEFA90
:102B00008D4908704FF480418848FFF7C7FA8B4918
:102B100008704FF400418548FFF7C0FA88490870F3
:102B200084480078012809D18348007830B9834867
:102B3000007818B90846007800B903247D48007869
:102B400050B97D480078012806D17C48007818B932
:102B50007B48007800B907247648007850B9764859
:102B6000007838B975480078012803D17448007896
:102B700000B90B246F48007850B96F48007838B915
:102B80006E48007820B96E480078012800D10F24E3
:102B900002216648FFF78BFA08216448FFF787FA9D
:102BA00010216248FFF785FA20216048FFF77FFA7D
:102BB0004FF480515D48FFF771FA5E4908704FF499
:102BC00000515A48FFF76AFA5B4908704FF4804198
:102BD0005648FFF763FA594908704FF400415348CB
:102BE000FFF75CFA5649087052480078012809D16D
:102BF0005148007830B95148007818B90846007833
:102C000000B902244B48007850B94B48007801289D
:102C100006D14A48007818B94948007800B9062416
:102C20004448007850B94448007838B9434800789F
:102C3000012803D14248007800B90A243D480078B1
:102C400050B93D48007838B93C48007820B93C4834
:102C50000078012800D10E2402213448FFF727FA1A
:102C600008213248FFF723FA10213048FFF71FFAF6
:102C700020212E48FFF71DFA4FF480512B48FFF713
:102C80000DFA2C4908704FF400512848FFF706FA56
:102C9000294908704FF480412448FFF7FFF927497C
:102CA00008704FF400412148FFF7F8F924490870F3
:102CB00020480078012809D11F48007830B91F4802
:102CC000007818B90846007800B90124194800783E
:102CD00050B919480078012806D11848007818B969
:102CE0001748007800B905241248007850B91248F6
:102CF000007838B91148007820B9114800780128C7
:102D000000D10D240B48007870B90B48007858B9F1
:102D10000A480078012807D10948007820B9092419
:102D200002E0002002490870204610BD001C01404E
:102D30002A00002026000020270000202800002074
:102D40002900002010B5FFF703FE00B26449088097
:102D50000846B0F9000009286BD007DC18D2DFE87C
:102D600000F0BD18222C36404A545E000E2874D064
:102D700008DC0A2867D00B2874D00C287CD00D28DA
:102D800006D183E00F286BD010286AD0FF28F7D136
:102D9000A4E05348B0F9001052A0FDF799FA0120C1
:102DA000514908809AE04E48B0F900104DA0FDF757
:102DB0008FFA02204C49088090E04948B0F9001091
:102DC00048A0FDF785FA03204749088086E044487B
:102DD000B0F9001043A0FDF77BFA042042490880B7
:102DE0007CE03F48B0F900103EA0FDF771FA0520E5
:102DF0003D49088072E03A48B0F9001039A0FDF76B
:102E000067FA06203849088068E03548B0F90010B4
:102E100034A0FDF75DFA0720334908805EE03048B2
:102E2000B0F900102FA0FDF753FA08202E490880B2
:102E300054E02B48B0F900102AA0FDF749FA092008
:102E4000294908804AE02648B0F9001025A0FDF77E
:102E50003FFA0A202449088040E021E002E00BE02C
:102E600028E031E01E48B0F900101EA0FDF730FA4E
:102E70000B201D49088031E01948B0F9001019A055
:102E8000FDF726FA0C201849088027E01448B0F90D
:102E9000001014A0FDF71CFA0D20134908801DE056
:102EA0000F48B0F900100FA0FDF712FA0E200E49DE
:102EB000088013E00A48B0F900100AA0FDF708FAEC
:102EC0000F200949088009E00548B0F9001005A065
:102ED000FDF7FEF910200449088000BF00BF10BDB7
:102EE00014000020256400001600002000BFFEE74B
:102EF0007047000070B5002100230F22C47804B38E
:102F0000154C246804F4E064C4F5E064210AC1F1BE
:102F10000403CA40447804FA03F18478144021433E
:102F200009010E4C0678A155047804F01F05012410
:102F3000AC4005786D11AD0005F1E025C5F8004104
:102F400009E0047804F01F050124AC40044D067824
:102F5000761145F8264070BD0CED00E000E400E07D
:102F600080E100E002490143024A1160704700001D
:102F70000000FA050CED00E010B50021054800F056
:102F8000DFFA0020044908800121024800F0B0F96E
:102F900010BD0000001000406200002070470000DB
:102FA00001460020034A506820F440400843506026
:102FB000704700000010024029B1064AD26902435E
:102FC000044BDA6104E0034AD2698243014BDA61BF
:102FD000704700000010024029B1064A12690243FE
:102FE000044B1A6104E0034A12698243014B1A61DF
:102FF000704700000010024029B1064A926902435E
:10300000044B9A6104E0034A92698243014B9A613E
:10301000704700000010024029B1064AD2680243FE
:10302000044BDA6004E0034AD2688243014BDA6061
:10303000704700000010024030B50021002200243B
:1030400000232D4D6D6805F00C0121B1042905D038
:10305000082923D105E0294D056022E0274D0560B0
:103060001FE0254D6D6805F47012234D6D6805F461
:103070008034022505EB92421CB9214D5543056071
:103080000BE01D4D6D6805F400351DB11C4D554319
:10309000056002E0194D5543056002E0174D0560DB
:1030A00000BF00BF144D6D6805F0F0010909154D12
:1030B0006B5C0568DD4045600F4D6D6805F4E061AF
:1030C000090A104D6B5C4568DD4085600A4D6D68EE
:1030D00005F46051C90A0B4D6B5C4568DD40C56065
:1030E000054D6D6805F44041890B074D6B5CC56863
:1030F000B5FBF3F5056130BD0010024000127A0007
:1031000000093D00B6010020C6010020704710B53F
:1031100000F002F810BD00000CB5002001900090F6
:103120003348006840F480303149086000BF3048BF
:10313000006800F4003000900198401C0190009855
:1031400018B90198B0F5A06FF1D12948006800F4D2
:10315000003010B10120009001E0002000900098A4
:10316000012843D12348006840F01000214908603D
:103170000846006820F0030008600846006840F038
:10318000020008601A4840681949486008464068CB
:1031900048600846406840F48060486008464068DF
:1031A00020F47C1048600846406840F4E81048600D
:1031B0000846006840F08070086000BF0C48006856
:1031C00000F000700028F9D00948406820F00300A2
:1031D000074948600846406840F00200486000BF68
:1031E0000348406800F00C000828F9D10CBD00002D
:1031F0000010024000200240042808D14FF0E021D6
:10320000096941F004014FF0E022116107E04FF03D
:10321000E021096921F004014FF0E02211617047BB
:103220007047000010B51348006840F001001149D4
:10323000086008464068104908400E494860084642
:1032400000680E4908400B4908600846006820F4F1
:10325000802008600846406820F4FE0048604FF473
:103260001F008860FFF753FF4FF0006004490860BB
:1032700010BD0000001002400000FFF8FFFFF6FE46
:1032800008ED00E010B501210A4800F03DF90128E1
:103290000AD10949086980470021064800F050F921
:1032A0006421044800F04AF90121024800F01DF8A9
:1032B00010BD000000080040B800002010B501213A
:1032C000064800F021F940B10121044800F00DF852
:1032D00003480088401C0249088010BD00100040CF
:1032E00062000020CA4302827047CA4302827047CC
:1032F00021B1028842F00102028004E002884FF608
:10330000FE731A400280704710B504466848844234
:1033100008D10121C014FFF77FFE0021E014FFF760
:103320007BFEC4E0B4F1804F08D101210846FFF7CD
:1033300053FE00210120FFF74FFEB8E05D488442B4
:1033400008D101210220FFF747FE00210220FFF7EC
:1033500043FEACE05848844208D101210420FFF725
:103360003BFE00210420FFF737FEA0E053488442D3
:1033700008D101210820FFF72FFE00210820FFF7C8
:103380002BFE94E04E48844208D101211020FFF723
:1033900023FE00211020FFF71FFE88E049488442E9
:1033A00008D101212020FFF717FE00212020FFF780
:1033B00013FE7CE04448844208D101214014FFF709
:1033C0002BFE00216014FFF727FE70E03F48844287
:1033D00009D10121C804FFF71FFE00214FF400208E
:1033E000FFF71AFE63E03A48844209D1012108053B
:1033F000FFF712FE00214FF48010FFF70DFE56E09C
:103400003448844209D101214805FFF705FE002117
:103410004FF40010FFF700FE49E02F48844208D126
:1034200001214020FFF7D8FD00214020FFF7D4FD07
:103430003DE02A48844208D101218020FFF7CCFDDD
:1034400000218020FFF7C8FD31E02548844208D1E3
:1034500001218015FFF7C0FD0021A015FFF7BCFD7D
:1034600025E02048844209D101210804FFF7D4FD5A
:1034700000214FF48030FFF7CFFD18E01A48844256
:1034800009D101214804FFF7C7FD00214FF40030A6
:10349000FFF7C2FD0BE01548844208D101218804E2
:1034A000FFF7BAFD00214FF48020FFF7B5FD10BDF6
:1034B000002C01400004004000080040000C0040C7
:1034C000001000400014004000340140004C014056
:1034D000005001400054014000180040001C004012
:1034E00000200040004001400044014000480140ED
:1034F0000146888C704702460020138A0B400BB1AE
:10350000012000E00020704730B502460020002373
:103510000024158A05EA0103958905EA010413B11F
:103520000CB1012000E0002030BD1AB183890B43AB
:10353000838102E083898B43838170478185704753
:1035400081847047002202881D4B98420ED01D4B8B
:1035500098420BD0B0F1804F08D01B4B984205D059
:103560001A4B984202D01A4B984204D14FF68F73EF
:103570001A404B881A43174B984207D0164B984273
:1035800004D04FF6FF431A40CB881A4302808B8841
:1035900083850B8803850A4B98420BD0094B9842D0
:1035A00008D00E4B984205D00D4B984202D00D4BDF
:1035B000984201D10B7A0386012383827047000071
:1035C000002C01400034014000040040000800408D
:1035D000000C00400010004000140040004001407A
:1035E00000440140004801407FB505460C460121DA
:1035F0000420FFF7E1FCADF80850ADF804400020CE
:10360000ADF80A00ADF8060001A90D48FFF79AFFD2
:10361000012241210A48FFF788FF1E208DF8000093
:1036200003208DF801008DF8020001208DF80300C1
:103630006846FFF75FFC01210148FFF759FE7FBD97
:103640000008004010B540F225511D4800F04AF82E
:1036500010B31B4800F002F9C4B21A48008800F405
:103660000040C8B91748008800F4804060B10A2CB7
:1036700003D000201349088020E01248008840F45D
:1036800000401049088019E00D2C06D10D48008833
:1036900040F480400B49088010E00A480088C0F3DD
:1036A0000D0009490C5407480088401C0549088052
:1036B00008460088C72801DD0020088010BD0000F2
:1036C00000380140B4010020DC01002021B18289D2
:1036D00042F40052828104E082894DF6FF731A4061
:1036E0008281704770B50246002400230025002027
:1036F00040F66A16B14200D100BFC1F3421501F095
:103700001F03012606FA03F3012D02D196893340E7
:1037100006E0022D02D1168A334001E0968A33403A
:103720000C12012606FA04F41688344013B10CB1C9
:10373000012000E0002070BDF0B503460024002603
:103740000025002040F66A17B94200D100BF184694
:10375000C1F3421401F01F06012707FA06F5012CF8
:1037600001D10C3004E0022C01D1103000E0143003
:103770001AB107682F43076002E00768AF4307608C
:10378000F0BD00002DE9F04786B005460E46002446
:10379000A24600BFA1460027B08900B100BF2F4656
:1037A0002C8A4CF6FF700440F08804432C82AC89CC
:1037B0004EF6F3100440B0883189084371890843FC
:1037C0000443AC81AC8A4FF6FF400440B089044307
:1037D000AC8201A8FFF730FC1F48874202D1DDF818
:1037E00010A001E0DDF80CA0A88900F4004040B171
:1037F0000AEBCA0000EB0A1031684900B0FBF1F88F
:1038000007E00AEBCA0000EB0A1031688900B0FB40
:10381000F1F86420B8FBF0F004012009642101FBF9
:103820001089A88900F4004040B1322000EBC900A3
:10383000B0FBF1F000F00700044308E0322000EB99
:1038400009106421B0FBF1F000F00F0004432C815B
:1038500006B0BDE8F08700000038014001468888C6
:10386000C0F30800704700BFFEE7490050EAC120DE
:1038700018BF04204A0D18BF40F0010040F2FF724B
:10388000B2EB515F08BF40F00200012808BF0520DD
:1038900070472DE9F0414F1E00EBC7010446D1E906
:1038A000000115461E4637F006020DD02A46334663
:1038B00004F0E6FB7F1E04EBC703D3E9002304F00A
:1038C00091F937F00602F1D1022F25D0042F13D041
:1038D000062F18BFBDE8F0812A46334604F0D0FB1E
:1038E000D4E90A2304F07EF92A46334604F0C8FBE3
:1038F000D4E9082304F076F92A46334604F0C0FBE5
:10390000D4E9062304F06EF92A46334604F0B8FBE6
:10391000D4E9042304F066F92A46334604F0B0FBE8
:10392000D4E9022304F05EF92A46334604F0A8FBEA
:10393000D4E90023BDE8F04104F054B9012205F0B8
:103940004CBA04F04FB9002213461046114604F059
:10395000F9B90000024A0020110705F03EBA000044
:1039600001FDFFFF30380A2801D2012070470020F6
:103970007047014600BF70472DE9FE4F06460F46CF
:103980000025684601F0DCF9002442E056F82400E6
:1039900057F82410A0EB010ABAF1000F01DB5146E1
:1039A00001E0CAF10001084605F010F883464FF027
:1039B0008F4104F0D9FE80465DF82400002104F018
:1039C00095FF16D05DF82410404604F0CDFE8246E7
:1039D0004FF07E5105F058F9814629F0004A0F4812
:1039E000416A504605F01EF912D20120A04005435D
:1039F0000EE00A48C169404605F014F805D30748AF
:103A0000016A404605F00EF902D20120A0400543AC
:103A1000641C032CBADB2846BDE8FE8F908E00089C
:103A20002DE9F04D8D4F21F0004A86B005460C4639
:103A3000BA452ADBAAEB070028430AD0884882450A
:103A400001DC1AD1CDB106B02846BDE8F04DFFF734
:103A500075BF844A844B284604F012FB07460E4685
:103A6000824A834B2846214604F00AFB06B03A46B8
:103A70003346BDE8F04D04F0B5B80120FCF764FE14
:103A800006B0BDE8F04DFFF75EBF7A48824542DAE6
:103A9000BAF1795F0BDA2846FFF7E7FE042808BF82
:103AA000FFF758FF284606B02146BDE8F08D2A46AC
:103AB0000B46104604F0E4FA834602466E480E4672
:103AC0000B4606217844FFF7E4FE5A46334604F0DD
:103AD000D7FA804669488A465A46334604217844D4
:103AE000FFF7D7FE5A46334604F0CAFA00223B4697
:103AF00004F078F802460B464046514604F022F99D
:103B00002A46234604F0BCFA06B02A462346BDE8FE
:103B1000F04D04F067B8284624F0004100223D46ED
:103B20003B4604F0ABFB4FF0FF3205F056F906467A
:103B3000024653480F460B4606217844FFF7A9FE7C
:103B400032463B4604F09CFACDE900014D4832462E
:103B50003B4604217844FFF79CFE32463B4604F086
:103B60008FFA00222B4604F03DF88346029130463E
:103B7000394602F0FDFE804643480D46504517DCAD
:103B8000DDE900015A46029B04F0DCF842462B4670
:103B900004F076FA42462B4604F024F8012205F0A0
:103BA0001CF9304A304B04F05BFC304A304B4CE09F
:103BB0004FF0000A52460B46404604F013F8CDE998
:103BC000031052462B461046194604F059FA324665
:103BD0003B4604F053FBDDE9033204F0B3F806463C
:103BE0000F46DDE900015A46029B04F0ABF883461C
:103BF000009101223046394605F0EFF8194A1A4B78
:103C000004F03CFB06460F4601224046294605F0DB
:103C1000E4F85A46009B04F033FA32463B4604F07F
:103C20001FFC06460F4601225046294605F0D5F8EE
:103C30000E4DDFF858802A46434604F01FFB3246FB
:103C40003B4604F01BFB2A46434604F017FB002CBE
:103C5000D8BF81F0004106B0BDE8F08D0000F03F14
:103C60000000F07F075C143326A6913C182D4454C5
:103C7000FB21F93F0000E03F2060000036600000BB
:103C8000AA5F0000C05F00003333EF3FFB21E93F34
:103C90002DE9F84F04460D4621F00040009173498C
:103CA000814211DC7249884201DC06D12CB12046E8
:103CB0002946BDE8F84FFFF741BE6E48002DCCBF46
:103CC0006D496E49BDE8F88F6D49814211DD6D493E
:103CD0008142D8BF4FF0FF366DDD20462946FFF701
:103CE000C4FD042808BFFFF735FE20462946BDE87D
:103CF000F88F6549654F25F00045814233DD644901
:103D0000814219DD002632464FF080432046294685
:103D100003F068FF80468A4601222046294605F0C6
:103D20005CF800223B4604F09BFB4246534604F0FD
:103D300009F804460D463EE001260022BA463B46FD
:103D40002046294603F04EFF80460F460022534688
:103D50002046294604F084FB42463B4603F0F2FF2E
:103D600004460D4627E04B4981421BDDDFF828A1C0
:103D70000226002253462046294604F081F90022FB
:103D80003B4603F02FFF80460F4600225346204655
:103D9000294604F065FB42463B4603F0D3FF044648
:103DA0000D4608E0032622462B4600203B4903F03F
:103DB000C9FF04460D4622462B461046194604F01C
:103DC0005FF98B46824602460B4604F059F90746D6
:103DD0000246334888460B4606217844FFF759FDD2
:103DE00052465B4604F04CF982462E488B463A46D2
:103DF000434605217844FFF74CFD3A46434604F01C
:103E00003FF902460B46002E504659460CDA03F0A5
:103E1000E9FE22462B4604F033F901B022462B4638
:103E2000BDE8F04F04F02ABA03F0DCFE22462B4630
:103E300004F026F91C4A7A4402EBC603D3E90023B6
:103E400004F00EFB22462B4604F00AFB174A7A4484
:103E500002EBC603D3E9002304F010FA009A002A0B
:103E6000B8BF81F00041BDE8F88F000000001044A9
:103E70000000F07F182D4454FB21F93FFB21F9BFCE
:103E80000000DC3F0000203E0000F33F0000F03F58
:103E90000000E63F008003400000F83F0000F0BF54
:103EA000C25D0000805D00001E5D0000E65C000059
:103EB0002DE9F04D9446CCF1000423F000464CEA85
:103EC0000404524F46EAD4749A46884621F00042D0
:103ED000BC4206D8454240EA050442EAD474BC42DA
:103EE00004D9BDE8F04D6246FFF72BBDAAF140555D
:103EF000A5F17F6555EA0C040BD0022404EAAA74EC
:103F0000434DDFF810E144EAD87452EA000B04D0C4
:103F10000CE0BDE8F04DFFF7BBBE002C14BF012C38
:103F2000BDE8F08D022C30D0032C32D056EA0C0BB9
:103F30000AD0BE4220D1BA4209D126F0804622F0F2
:103F400080423346114617E000291ADB25E0DFF8EE
:103F5000C8B0FB44002C04BFDBE90001BDE8F08DD4
:103F6000012C02BFDBE9000181F00041BDE8F08DCA
:103F7000022C0AD0032C0CD0BA4212D1B8F1000F97
:103F80000BDA23482549BDE8F08D28462449BDE8D1
:103F9000F08D28467146BDE8F08D1D482149BDE8E9
:103FA000F08D921B12153C2AC4BF19481D490EDC26
:103FB000BAF1000FBEBF12F13C0F0020014606DB34
:103FC000624603F0BFFE21F00041FFF761FE002CC6
:103FD00008BFBDE8F08D012C04BF81F00041BDE8B1
:103FE000F08D114A114B022C07D004F039FA2A4601
:103FF000BDE8F04D0A4B04F033BA04F031FA2A461A
:10400000BDE8F04D064B04F039B900000000F07F28
:10401000182D4454FB2109C07A5C0000FB21F9BF34
:10402000FB210940FB21F93F075C143326A6A13C84
:104030002DE9F0410446E07800F0C006E07800F099
:104040003F05607800F0010098B1EF102846E917AD
:1040500005EB5171C910A5EBC101491C01F0FF0826
:104060000B48006820B10A4841460268384690472C
:1040700000BF607800F0080030B10548406818B112
:10408000B011034A516888470020BDE8F081000064
:10409000CC01002010B56FF00400FFF7ADF80A481E
:1040A00000680A49B0FBF1F0094908700846007839
:1040B00000EB4001C1EBC0104FF6FF7101EAC000F8
:1040C0000449088010BD00000000002000127A00A2
:1040D000AC010020AE0100200146114A12884A437B
:1040E0004FF0E0235A6100229A611A46126942F0A9
:1040F00001021A6100BF4FF0E022106900F00102D6
:104100001AB100F48032002AF5D04FF0E022126993
:1041100022F001024FF0E0231A6100229A617047F9
:10412000AE0100200146114A12784A434FF0E023C5
:104130005A6100229A611A46126942F001021A611C
:1041400000BF4FF0E022106900F001021AB100F444
:104150008032002AF5D04FF0E022126922F00102ED
:104160004FF0E0231A6100229A617047AC010020F1
:1041700038B5044664B120208DF8000028208DF861
:10418000010030208DF8020038208DF8030004E093
:10419000A32204216846FCF74FFA6A46042140F640
:1041A0009E2002F00FFB01F0F9FE38BD3EB504463B
:1041B00002208DF80000CA208DF80100E3208DF860
:1041C000020009208DF803006A460421682002F0ED
:1041D000F9FAA3208DF8000004F0400048B1C02097
:1041E0008DF80100C8208DF80200C2208DF8030070
:1041F00006E0A3208DF801008DF802008DF8030081
:1042000004F4C07048B1C4208DF80400CC208DF8AF
:104210000500C6208DF8060006E0A3208DF80400F6
:104220008DF805008DF80600A3208DF807008DF8A5
:1042300008008DF809006A460A2140F6A72002F01E
:10424000C1FA04F0030018B120208DF8000002E04C
:10425000D8208DF800006A46012140F6B62002F011
:10426000B1FA04F0200018B1012000F0ADF802E02E
:10427000002000F0A9F804F4C07008B304F48070C2
:1042800060B1B2208DF800008B208DF80100B620BF
:104290008DF802009B208DF803000BE0B0208DF814
:1042A000000080208DF80100B4208DF802009020DD
:1042B0008DF803006A46042140F6A22002F082FA3B
:1042C00004F0010020B3F8208DF800006A460121B7
:1042D0004FF40B6002F076FAFA21072000F02CFC74
:1042E000072000F0F3FB012000F013FC642000F035
:1042F000F3FC4FF4FA7000F002FDC821304800F0E2
:10430000A3FB282000F0BCFB0A2000F0CCFB08E057
:10431000D8208DF800006A4601214FF40B6002F0AE
:1043200051FA04F0020018B1D9208DF8000002E023
:10433000D8208DF800006A46012140F23D7002F05D
:1043400041FA04F0040018B1012000F069F802E01D
:10435000002000F065F804F0100018B10120FFF70C
:1043600007FF02E00020FFF703FF44F008001549B3
:10437000488101F013FE00201249887304F04000C8
:1043800018B10846807B801D887304F4C07020B18A
:104390000C48807B801D0B49887304F0140020B109
:1043A0000848807B10300749887304F0030020B16F
:1043B0000448807B001D0349887300203EBD000037
:1043C00009E3CA02CC0100203EB504466CB10EA13F
:1043D000D1E900208968CDE9002002916A460921CF
:1043E0004FF4976002F0EEF93EBD0AA2D2E9001048
:1043F0009268CDE9010200916A4609214FF4976065
:1044000002F0E0F9F0E70000B8AAB38DB4980D35DA
:104410005D000000B8AAAAAAB088C3C5C700000002
:1044200038B5044664B1C0208DF80000C2208DF874
:104430000100C4208DF80200C6208DF8030004E0BE
:104440008B2204216846FCF7F7F86A46042140F6FF
:10445000982002F0B7F901F0A1FD38BD10B5C823CE
:104460004FF48062024940F6F63001F02BFC10BD9B
:10447000B88E00082DE9F04F8DB0074688461546E6
:104480009946DDE9166B0024002030806B49887B5B
:104490005A4605A901F0E2FC18B1601E0DB0BDE856
:1044A000F08F6648807A00F01400002867D09DF8ED
:1044B000140000069DF8151040EA01409DF8161002
:1044C00040EA01209DF81710084328609DF8180065
:1044D00000069DF8191040EA01409DF81A1040EAC4
:1044E00001209DF81B10084368609DF81C00000621
:1044F0009DF81D1040EA01409DF81E1040EA012081
:104500009DF81F100843A8609DF8200000069DF844
:10451000211040EA01409DF8221040EA01209DF858
:1045200023100843E86004F11000C4B228680014A6
:104530000190686800140290A86800140390E8686D
:104540000014049001984043029901FB0100039973
:1045500001FB0100049901FB010ABAF1706F02DB53
:10456000BAF1885F05DD01F019FD00203080401EA2
:1045700094E7B6F9000040F48070308000BF2F4807
:10458000807A00F0400020B305A9601C085C095D3A
:1045900040EA012000B2A8F8000005A9E01C095C6F
:1045A00005AAA01C105C41EA002000B2A8F8020095
:1045B00005A9601D095C201D105C41EA002000B2C5
:1045C000A8F80400A01DC4B2B6F9000040F008002D
:1045D00030801A48408900F4C07008B305A9601CF7
:1045E000085C095D40EA012000B2388005A9E01CA2
:1045F000095C05AAA01C105C41EA002000B278808A
:1046000005A9601D095C201D105C41EA002000B274
:10461000B880A01DC4B2B6F9000040F07000308030
:104620000648807A00F0030018B105A90819FFF7C1
:10463000FFFC484600F0D8FF00202FE7CC01002007
:1046400070B588B0064601A801F090F9BDF80400E5
:104650000021C90341EA5045C4034448007A00F0F0
:10466000030056F8200005904048007A00F004004E
:1046700010B10598404205903C48007AC0F3C10053
:1046800056F8200006903948007A00F0200010B15A
:104690000698404206903548007AC0F3811056F8DB
:1046A000200007903148008900F4807010B107980D
:1046B000404207900598C117A0FB042301FB043179
:1046C00000FB0510810041EA927005900698C11721
:1046D000A0FB042301FB043100FB0510810041EA2B
:1046E000927006900798C117A0FB042301FB0431C8
:1046F00000FB0510810041EA927007900598000EBA
:104700008DF808000598000C8DF809000598000A3E
:104710008DF80A000598C0B28DF80B000698000EBF
:104720008DF80C000698000C8DF80D000698000A14
:104730008DF80E000698C0B28DF80F000798000E95
:104740008DF810000798000C8DF811000798000AEA
:104750008DF812000798C0B28DF8130002AA0C2140
:104760004FF4257002F02EF808B070BDCC01002087
:1047700030B585B0044616A207CA02AB07C3C82CE1
:1047800003DD4FF0FF3005B030BDC82090FBF4F0E2
:10479000401E85B2280A8DF80000E8B28DF80100AD
:1047A0006A46022140F2162002F00CF810B14FF0D8
:1047B000FF30E8E702AA0C2140F6C12002F002F81F
:1047C00010B14FF0FF30DEE7044884810020DAE7C3
:1047D000FEF2ABC4AAF1DFDFBBAFDFDFCC0100200C
:1047E0001FB504464848007A00F0030054F8200042
:1047F00001904548007A00F0040010B10198404251
:1048000001904148007AC0F3C10054F820000290A2
:104810003D48007A00F0200010B10298404202901A
:104820003948007AC0F3811054F8200003903648CC
:10483000008900F4807010B103984042039033491E
:10484000019880FB0101800F40EA810001902F490F
:10485000029880FB0110820042EA917002902B497D
:10486000039880FB0110820042EA91700390019846
:10487000000E8DF800000198000C8DF801000198E1
:10488000000A8DF802000198C0B28DF803006A4654
:1048900004214FF4747001F095FF18B14FF0FF3010
:1048A00004B010BD0298000E8DF800000298000CB4
:1048B0008DF801000298000A8DF802000298C0B23B
:1048C0008DF803006A4604214FF4757001F07AFFF9
:1048D00010B14FF0FF30E3E70398000E8DF80000B1
:1048E0000398000C8DF801000398000A8DF802006F
:1048F0000398C0B28DF803006A4604214FF4767025
:1049000001F060FFCCE70000CC01002009E3CA02FF
:1049100010B586B0044647A00068039046A0006822
:10492000029046A00068019045A00068009004F045
:10493000030003A9085C8DF8140003A8C4F3C101A7
:10494000405C8DF8150003A8C4F38111405C8DF81C
:10495000160004F0030002A9085C8DF8100002A8FC
:10496000C4F3C101405C8DF8110002A8C4F38111A9
:10497000405C8DF8120005AA032140F2264001F0A8
:1049800021FF18B14FF0FF3006B010BD04AA03217B
:1049900040F22A4001F016FF10B14FF0FF30F3E76C
:1049A000019805900098049004F0040058B19DF817
:1049B000140040F001008DF814009DF8100040F044
:1049C00001008DF8100004F0200058B19DF815008A
:1049D00040F001008DF815009DF8110040F0010035
:1049E0008DF8110004F4807058B19DF8160040F065
:1049F00001008DF816009DF8120040F001008DF8BE
:104A0000120005AA03214FF4886001F0DBFE10B10B
:104A10004FF0FF30B8E704AA032140F2314001F023
:104A2000D1FE10B14FF0FF30AEE706480481002000
:104A3000AAE700004CCD6C000CC92C00365676005D
:104A400026466600CC010020F8B505460E464FF418
:104A50007A7095FBF0F000FB06F4200E8DF8000054
:104A6000200C8DF80100200A8DF80200E0B28DF8CC
:104A700003006A4604214FF4AE7001F0A3FEF8BDB6
:104A800038B50446052094FBF0F084B220128DF86E
:104A90000000E0B28DF801006A4602214FF4AD70CB
:104AA00001F090FE38BD38B50446052094FBF0F0C7
:104AB00084B220128DF80000E0B28DF801006A4641
:104AC00002214FF4AC7001F07DFE38BD38B50446CC
:104AD0000020009004F0010020B19DF8000040F09B
:104AE0003000009004F0020020B19DF8000040F07A
:104AF0000C00009004F0040020B19DF8000040F08C
:104B0000030000906A4601214FF4A47001F05AFEA0
:104B100038BD38B50446012C01DA012402E0042C2A
:104B200000DD0424601EC0B200906A46012140F2FC
:104B30004F1001F047FE38BD2DE9FC4706460F46F1
:104B400006F0070010B1B7F5C86F03DD4FF0FF3076
:104B5000BDE8FC87384603F051FF8146594903F010
:104B600003FE8046684600F0DBFE9DF80000022848
:104B700006D0042816D0082826D0102848D135E0C1
:104B80004FF08D41404603F081FF814603F0FEFE69
:104B900084B24D49404603F079FF814603F0F6FEAA
:104BA00085B238E04FF08C41404603F06FFF8146FC
:104BB00003F0ECFE84B24549404603F067FF8146AE
:104BC00003F0E4FE85B226E04FF08B41404603F04F
:104BD0005DFF814603F0DAFE84B23D49404603F0B2
:104BE00055FF814603F0D2FE85B214E04FF08A41B2
:104BF000404603F04BFF814603F0C8FE84B23549BE
:104C0000404603F043FF814603F0C0FE85B202E058
:104C10004FF0FF309CE700BF20128DF80400E0B297
:104C20008DF8050028128DF80600E8B28DF807000F
:104C300006F00100A0B101AA02214FF4EA7001F0D0
:104C4000C1FD10B14FF0FF3082E70DF106020221E5
:104C50004FF4927001F0B6FD10B14FF0FF3077E7DE
:104C600006F00200A0B101AA02214FF4EC7001F09D
:104C7000A9FD10B14FF0FF306AE70DF106020221E5
:104C80004FF4947001F09EFD10B14FF0FF305FE7DC
:104C900006F00400A0B101AA02214FF4EE7001F069
:104CA00091FD10B14FF0FF3052E70DF106020221E5
:104CB0004FF4967001F086FD10B14FF0FF3047E7DA
:104CC000002045E700004843000040460000C04582
:104CD000000040450000C04438B50446052094FB60
:104CE000F0F085B228128DF80000E8B28DF80100CE
:104CF0006A4602214FF4EF7001F064FD38BD38B50B
:104D00000446052094FBF0F085B228128DF80000CF
:104D1000E8B28DF801006A4602214FF4ED7001F00F
:104D200051FD38BD00BF054A128802F04002002A3A
:104D3000F9D0C2B2014B1B1D1A80704700380140E8
:104D40007CB5054628494968087801AB04220D2145
:104D5000FDF7ADFC08B107207CBD9DF80700C0F34E
:104D600001109DF8041001F0E00140EAE1008DF827
:104D700000009DF80700C0F381009DF8051001F0C8
:104D8000E00140EAE1008DF801009DF8070000F025
:104D900003009DF8061001F0E00140EAE1008DF803
:104DA000020000241CE01DF8040018B9002045F89A
:104DB000240013E00D4845F8240006E055F82400CF
:104DC0000B4903F063FE45F824001DF80400401E63
:104DD000C0B20DF804000028F0D100BF601CC4B2BE
:104DE000032CE0DB0020B7E72C0000207B14AE3E54
:104DF0001D5A843F2DE9F04F87B005460C46914679
:104E000001208DF8100000208DF81100FE4A126874
:104E1000917CFD4A5268107804AB0222FDF7EDFC4C
:104E200020B14FF0FF3007B0BDE8F08FC820FFF78A
:104E300053F900208DF81000F34A1268D17BF24A32
:104E40005268107804AB0122FDF7D7FC10B14FF087
:104E5000FF30E8E7EC4A12685179EB4A5268107863
:104E600004AB0122FDF7C9FC10B14FF0FF30DAE7C7
:104E7000E54A1268917CE44A5268107804AB01223A
:104E8000FDF7BBFC10B14FF0FF30CCE7DE4A1268F3
:104E9000D17DDD4A5268107804AB0122FDF7ADFCEC
:104EA00010B14FF0FF30BEE7D74A12681179D64AE9
:104EB0005268107804AB0122FDF79FFC10B14FF04F
:104EC000FF30B0E70C208DF81000CF4A126811793E
:104ED000CD4A5268107804AB0122FDF78EFC10B168
:104EE0004FF0FF309FE70F20FFF7F6F8C648806AC3
:104EF000407A8DF81000C44A12689178C24A52680C
:104F0000107804AB0122FDF778FC10B14FF0FF30B0
:104F100089E7BD48806A007A8DF81000BA4A1268A5
:104F20005178B94A5268107804AB0122FDF765FC4C
:104F300010B14FF0FF3076E7B9F1000F07D0B2485B
:104F4000806A807A40F0E0008DF8100004E0AE48FE
:104F5000806A807A8DF81000AB4A12689179AA4A6B
:104F60005268107804AB0122FDF747FC10B14FF0F6
:104F7000FF3058E7B9F1000F07D0A348806AC07A24
:104F800040F0E0008DF8100003E0A048C07A8DF8F2
:104F900010009D4A1268D1799B4A5268107804AB80
:104FA0000122FDF72AFC10B14FF0FF303BE7B9F1C9
:104FB000000F02D0C820FFF78FF840208DF81000B6
:104FC000914A12681179904A5268107804AB012214
:104FD000FDF713FC10B14FF0FF3024E778208DF877
:104FE0001000894A12685179874A5268107804ABD8
:104FF0000122FDF702FC10B14FF0FF3013E78349A7
:105000008889FFF769F800208DF810007E4A126841
:1050100051797D4A5268107804AB0122FDF7EDFB0F
:1050200010B14FF0FF30FEE6774A1268917A764A67
:105030005268107804AB0222FDF739FB10B14FF033
:10504000FF30F0E69DF811009DF8101040EA012BAA
:105050000C209BFBF0F0C6B20020A86068602860BE
:10506000A06060602060824665E0674A1268D17A7D
:10507000654A5268107804AB0C22FDF718FB10B19A
:105080004FF0FF30CFE69DF811009DF8101040EA78
:10509000012000B2ADF808009DF813009DF8121031
:1050A00040EA012000B2ADF80A009DF815009DF815
:1050B000141040EA012000B2ADF80C00BDF9081050
:1050C000206808442060BDF90A10606808446060E8
:1050D000BDF90C10A0680844A0609DF817009DF869
:1050E000161040EA012000B2ADF800009DF819004A
:1050F0009DF8181040EA012000B2ADF802009DF8BA
:105100001B009DF81A1040EA012000B2ADF804001F
:10511000BDF90010286808442860BDF902106868CD
:1051200008446860BDF90410A8680844A8600AF142
:10513000010000F0FF0AB24597DB3448D0F800C008
:105140002868C117090441EA104107046246002398
:105150003846FBF798F832460023CDE90201FBF709
:1051600092F828602948D0F800C06868C11709047F
:1051700041EA10410704624600233846FBF783F8F2
:1051800032460023CDE90201FBF77DF868601F4835
:10519000D0F800C0A868C117090441EA104107040B
:1051A000624600233846FBF76EF832460023CDE90D
:1051B0000201FBF768F8A8601448D0F804C0216821
:1051C000C817000440EA11480F046246002338461D
:1051D0004146FBF758F832460023CDE90201FBF7C0
:1051E00052F820600948D0F804C06068C11709046B
:1051F00041EA10410704624600233846FBF743F8B2
:105200003246002304E000002C000020908E0008AD
:10521000CDE90201FBF737F860601148D0F804C00F
:10522000A068C117090441EA10410704624600233F
:105230003846FBF728F832460023CDE90201FBF798
:1052400022F8A060A068002804DDA068A0F58030E6
:10525000A06003E0A06800F58030A0600020E2E5D7
:10526000908E00082DE9FC5F06460F4600253D495B
:105270004968087801AB03220D21FDF718FA10B137
:105280000720BDE8FC9F9DF8040000F01F008DF88A
:1052900004009DF8050000F01F008DF805009DF842
:1052A000060000F01F008DF80600002456E056F8B6
:1052B000240057F82410A0EB010BBBF1000F01DB19
:1052C000594601E0CBF10001084603F07FFB4FF0A7
:1052D0008F41009003F048FA814601A8005D68B351
:1052E0002149086803F08AFB834659461F4803F0AA
:1052F0003BFA804604E01E49404603F0C7FB804667
:1053000001A8005D401EC0B201A908550028F2D1D5
:105310004146484603F028FA83464FF07E5103F099
:10532000B3FC82462AF0004B0F488169584603F0CF
:1053300079FC12D20120A04005430EE00A48016921
:10534000484603F06FFB05D307484169484603F020
:1053500069FC02D20120A0400543641C032CA6DB9B
:1053600028468EE72C000020908E000800B04C45A7
:1053700054E3853F08B54FF4A060FDF7F3FD3620F8
:105380008DF8000000208DF801008DF8020001204A
:105390008DF803006846FDF7ADFD08BD08B5012195
:1053A0000802FDF729FE4FF40040ADF8000004208C
:1053B0008DF8030003208DF8020069460148FCF7D0
:1053C0009AFD08BD0020014010B50446204600F0BB
:1053D0000FF80346E01C00F00BF843EAC00083B26C
:1053E000A01D00F005F843EA801083B2184610BDF6
:1053F000014691F90020002A01DD00201EE091F90C
:105400000020002A01DA042018E091F90120002A86
:1054100001DD012012E091F90120002A01DA0520C6
:105420000CE091F90220002A01DD022006E091F94A
:105430000220002A01DA062000E007207047000061
:105440008AB000BF00BF0020069005904FF4A06016
:10545000FDF788FD4FF4E13001F0B0FAFEF71AFED7
:105460004648416848208847FDF7A4F8FCF782FACF
:10547000FCF7CEFEFDF7F2F9FFF790FF02E040A047
:10548000FAF726FFFCF7FAFA0028F8D102E042A06A
:10549000FAF71EFF00F0F4F90028F8D102E043A06B
:1054A000FAF716FFFCF73AFC0028F8D164E007AAE7
:1054B00008A909A800F0D2F8079803F0BBF8044641
:1054C0000D46089803F0B6F806460F46099803F013
:1054D000B1F8804642460B4639A0CDE90067CDE9D8
:1054E0000245FAF7F5FE05A906A8FCF71BFB05988F
:1054F00003F0A0F804460D46069803F09BF8064614
:1055000032460B4631A0CDE90045FAF7E1FEFCF743
:10551000BFFB044603F05AFA8246504603F08AF86D
:10552000044622460B462BA0FAF7D2FE0A210020A1
:10553000FCF700FE8346594627A0FAF7C9FEFCF7A0
:1055400013FE0490049803F075F8044622460B46B7
:1055500020A0FAF7BDFE4FF400412048FCF79EFD65
:1055600010B11FA0FAF7B4FEFDF7ECFB1D48B0F92F
:10557000001019A0FAF7ACFE99E70000B80000206F
:1055800044485432325F436865636B204572726FE2
:1055900072210D0A000000006D70752D646D702081
:1055A0006572726F72210D0A000000006473313859
:1055B000623230206572726F72210D0A00000000A5
:1055C00025662C25662C25660000000025662C2506
:1055D00066000000256600002564000000200140F0
:1055E00079657300160000207047000070B504460E
:1055F000002624F00104184890F8240008B1002087
:1056000070BD1548807A10B94FF0FF30F8E71248A6
:10561000057C807A2040104908740846007CA0422E
:1056200002D04FF0FF3600E0002614B90A48007D92
:1056300018B1012001F054F902E0002001F050F906
:105640003CB100F0ABFC20B1034805744FF0FF30D3
:10565000D6E73046D4E700002C0000202DE9F04FBB
:1056600099B004460D4616464FF07E574FF000089D
:105670004FF000094FF0000A12A813A918AB0EAAA8
:10568000CDE9001014A916A8FEF7F4FE18B1012008
:1056900019B0BDE8F08FBDF84C0000F48070002810
:1056A0007ED00E9803F092F983464FF09D4103F0AF
:1056B0005BF807460F9803F089F983464FF09D4148
:1056C00003F052F88046109803F080F983464FF0BB
:1056D0009D4103F049F88146119803F077F983461C
:1056E0004FF09D4103F040F8824639464FF080402C
:1056F00003F0CCF94946059003F0C8F941460790FC
:105700004FF0404003F0C2F95146059003F0BEF956
:105710000690079902F0BAFF834602F08BFFCDE9AD
:105720000801FEF77DF94FF06632544BCDE90A01CE
:1057300002F0A6FCCDE90C0102F022FA20604946F5
:105740004FF0804003F0A2F94946029003F09EF921
:10575000414604904FF0404003F098F941460290D2
:1057600003F094F90390049903F08EFA83464FF006
:105770007E5102F08BFF059002F05CFFCDE908013D
:1057800039464FF0804003F081F94146039003F021
:105790007DF9494604904FF0804003F077F900E02E
:1057A00068E05146039003F071F98346049902F0D2
:1057B0006DFF059002F03EFFCDE90601DDE908230B
:1057C000FEF776FB4FF066322C4BCDE90A0102F072
:1057D00057FCCDE90C0102F0D3F928605146504640
:1057E00003F054F949460490484603F04FF9414606
:1057F0000390404603F04AF939460190384603F0D9
:1058000045F90090019902F041FF0290039903F0DD
:105810003BFA8346049903F037FA059002F00AFF39
:10582000CDE908015146384603F030F94946049065
:10583000404603F02BF90390049902F027FF4FF044
:105840008041059003F022F9834602F0F3FECDE992
:105850000601DDE90823FEF72BFB4FF06632074B0C
:10586000CDE90A0102F00CFCCDE90C0102F088F947
:10587000306001E002200BE7002009E766A64C40FB
:1058800070B50024FCF776FD00F024F9002840D123
:10589000782000F02FFFC4B20CB1012070BD782039
:1058A000FFF7A4FEC4B20CB10220F7E7642000F0B9
:1058B000D3FEC4B20CB10320F0E7FEF7CFFDC4B2B3
:1058C0000CB10420EAE71548FFF77EFD0546FFF717
:1058D0001FF8C4B20CB10520E0E740F27310FEF7E8
:1058E00065FCC4B20CB10620D8E76420FEF740FF87
:1058F000C4B20CB10720D1E700F0A7FF04460CB1F9
:105900000820CBE7012000F0A3FDC4B21CB10920A0
:10591000C4E70A20C2E70020C0E7000058000020CA
:1059200001461148407A30B1012807D0022808D03A
:1059300003280CD108E0022008700BE00420087056
:1059400008E00820087005E01020087002E04FF021
:10595000FF30704700BF0448C07C18B1087840068B
:10596000000E08700020F4E72C00002001461348C8
:10597000407A30B1012808D002280AD0032810D17B
:105980000BE04FF4804008800EE041F69C700880E8
:105990000AE04FF48050088006E04FF40060088071
:1059A00002E04FF0FF30704700BF0448C07C10B1E8
:1059B0000888401008800020F5E700002C00002037
:1059C00001460248007C0870002070472C0000202F
:1059D00001460F48007A30B1012807D0022809D0CB
:1059E00003280FD10AE0FA2008800EE04FF4FA7085
:1059F00008800AE04FF47A70088006E04FF4FA60FD
:105A0000088002E00020088000BF00BF002070472F
:105A10002C00002001460E48007A30B1012807D042
:105A2000022808D003280CD108E00A4808600BE0DF
:105A30000948086008E00948086005E0084808606F
:105A400002E04FF0FF30704700BF0020FBE700008E
:105A50002C00002000000343000083423333034244
:105A60003333834101461248C07A082817D2DFE851
:105A700000F01704070A0D101318BC20088013E06B
:105A80006220088010E02A2008800DE014200880A1
:105A90000AE00A20088007E00520088004E000BF33
:105AA00000BF0020088000BF00BF0020704700003A
:105AB0002C0000200146064890F8240010B14FF059
:105AC000FF3070470248C08908800020F9E70000D5
:105AD0002C0000201CB580208DF80000654A12685B
