:020000040800F2
:100000008017002001010008090100080B01000809
:100010000D0100080F010008110100080000000098
:1000200000000000000000000000000013010008B4
:100030001501000800000000170100080512000863
:100040001B0100081B0100081B0100081B01000820
:100050001B0100081B0100081B0100081B01000810
:100060001B0100081B0100081B0100081B01000800
:100070001B0100081B0100081B0100081B010008F0
:100080001B0100081B0100081B0100081B010008E0
:100090001B0100081B0100081B0100081B010008D0
:1000A0001B0100081B0100081B0100081B010008C0
:1000B0001B0100081B0100081B0100081B010008B0
:1000C0001B0100081B0100081B0100081B010008A0
:1000D0001B01000831130008B91300081B010008B8
:1000E0001B0100081B0100081B010008DFF80CD0F1
:1000F00000F0F4FA004800474D2000088017002067
:100100000648804706480047FEE7FEE7FEE7FEE7B1
:10011000FEE7FEE7FEE7FEE7FEE7FEE7A1120008C6
:10012000ED00000880EA010210B502F00043400033
:1001300022D04A001FD0010E01EB1261C0F356001D
:10014000C2F3560240F4000042F40002A0FB022079
:1001500000047F39140400D0401C50EA124001D43E
:100160004000491EC2B20C0604EBD010401C4008EF
:10017000802A02D003E0002010BD20F001000029F9
:1001800000DA0020184310BD30B480EA010202F00A
:10019000004530F0004221F0004013D090B1C30D73
:1001A000D40DC2F31601C0F31600E41A41F40001A5
:1001B00040F400027D34914201D3641C00E0490008
:1001C000002C02DA30BC002070474FF400000023FE
:1001D000914201D3891A034340084FEA4101F7D104
:1001E00051B1914202D14FF0004105E002D24FF0EF
:1001F000010101E06FF0010103EBC450284430BC61
:1002000000F07CB8C10F80EAE0700844CA0796236A
:10021000002100F07CB800F0004220F00040C10D49
:10022000C0F3160040F400007F2901DA0020704777
:10023000962903DCC1F19601C84001E09639884057
:10024000002AF4D04042704700F0004230F00040F5
:100250000AD0C10D01F56071C0F3160042EA0151E8
:10026000C20840071143704700200146704730B56F
:100270000B46014600202022012409E021FA02F564
:100280009D4205D303FA02F5491B04FA02F52844FE
:10029000151EA2F10102F1DC30BD2DE9F05F05462B
:1002A000002092469B4688460646814640241BE035
:1002B000284641464746224600F031FA53465A4600
:1002C000C01A914110D311461846224600F018FA80
:1002D0002D1A67EB01084F4622460120002100F04D
:1002E0000FFA17EB00094E41201EA4F10104DFDCD8
:1002F000484631462A464346BDE8F09F0029A8BF3C
:100300007047401C490008BF20F00100704710B43E
:10031000B0FA80FC00FA0CF050EA010404BF10BCF3
:10032000704749B1CCF1200421FA04F411FA0CF120
:1003300018BF012121430843A3EB0C01CB1D4FEA59
:1003400000614FEA102042BF002010BC704700EB54
:10035000C35010440029A4BF10BC7047401C490082
:1003600008BF20F0010010BC70472DE9FE4F804609
:1003700081EA0300C00F0C46009021F0004123F0F9
:100380000045B8EB0200A94105D2404621469046FF
:100390001C460B46024623F00040104347D0270D71
:1003A000C7F30A00C3F30A510290401A0190402893
:1003B0006BDAC3F3130040F4801B0098924620B11F
:1003C0000023D2EB030A63EB0B0B01985946C0F1F3
:1003D0004002504600F094F906460D4650465946F4
:1003E000019A00F0ACF910EB08006141002487EAA3
:1003F000115284EAE7731A4340D0009A62B3019A1B
:10040000012A4FEA075215DC001B61EB02014FF095
:10041000004202EA0752CDE90042001C41F580117A
:1004200032462B4600F0ACF903B0BDE8F08F4046F1
:100430002146F9E7001B61EB0201001C41F5801326
:1004400000185B412018A2F5001747EB030140EAB2
:10045000D570B6196D4111E06D084FEA360645EAD0
:10046000C0754FEA0752001B61EB0201001C41F509
:10047000801149084FEA30000019514132462B469D
:1004800003B0BDE8F04F00F06CB9009801224000C5
:100490000023D0EB020263EBE073009821464FEAA1
:1004A000E074B8EB000061EB0401E9E783F000437E
:1004B0005BE781F0004158E72DE9FE4F81EA030434
:1004C00004F0004421F0004100944FF0000B23F0B1
:1004D000004350EA01045ED052EA03045BD0C3F348
:1004E0000A54C1F30A552C44A4F2F3340194A0FB3E
:1004F0000254C1F3130141F48011C3F3130343F415
:10050000801301FB024400FB034E840A970A44EA6D
:10051000815447EA8357A4FB076802958D0A05FBBF
:1005200007854FEA932C04FB0C542705029D4FEAE4
:10053000065847EA1637B5EB08056EEB070C870E31
:10054000920E47EA811742EA8312A7FB0201B6EB3B
:100550000B0164EB00042B0D43EA0C335E1844EBF3
:100560001C50DA465146E7FB0201C5F313044FEA7B
:100570000B3343EA14534FEA0432019C43EA060367
:10058000A4F10C040294009CCDE900B400F0F8F84A
:1005900003B0BDE8F08F00200146F9E72DE9F04DEA
:1005A00081EA030404F0004B21F0004514464FF0AB
:1005B000000A23F0004150EA050220D054EA01026B
:1005C0001DD0C5F30A570246C5F31303C1F3130048
:1005D000C1F30A5640F4801543F48013A7EB0608D4
:1005E000101BD64608F2FD3873EB050002D308F164
:1005F000010801E092185B41B8F1000F03DA002016
:100600000146BDE8F08D00204FF480110646844677
:100610000EE0171B73EB050705D3121B63EB0503F5
:1006200006434CEA010C49084FEA300092185B413E
:1006300050EA0107EDD152EA030012D082EA040029
:1006400083EA0501084305D0101BAB4106D2012205
:10065000002306E000224FF0004302E06FF00102A9
:1006600053101AEB06004CEB085110EB0A0041EB5B
:100670000B01BDE8F04D00F074B8C1F30A52C1F3AC
:10068000130140F2FF3341F480119A4202DA002054
:100690000146704740F233439A42A2F2334202DCF1
:1006A000524200F03CB800F02BB8000030B5041EF8
:1006B00071F1000404DB4FF00044404264EB01019F
:1006C000141E73F1000405DB1C464FF00043524238
:1006D00063EB0403994208BF904230BD064C074DBE
:1006E00006E0E06840F0010394E807009847103402
:1006F000AC42F6D3FFF7FEFC4C2B00086C2B000835
:10070000202A04DB203A00FA02F1002070479140D1
:10071000C2F1200320FA03F3194390407047202AC6
:1007200004DB203A21FA02F00021704721FA02F39B
:10073000D040C2F120029140084319467047202A58
:1007400006DBCB17203A41FA02F043EAE07306E0F9
:1007500041FA02F3D040C2F1200291400843194609
:10076000704710B5141E73F1000408DA401C41F103
:10077000000192185B411A4301D120F0010010BD25
:100780002DE9F04D92469B4611B1B1FA81F202E09B
:10079000B0FA80F220329046FFF7B2FF04460F46CF
:1007A00040EA0A0041EA0B0153465A46084313D077
:1007B000114653EA010019D0C8F140025046FFF734
:1007C000AEFF05460E46504659464246FFF798FF93
:1007D000084305D0012004E020463946BDE8F08DED
:1007E0000020054346EAE0762C4337430A98630528
:1007F000E40AA0EB08000022FD0A44EA47540A304C
:1008000002D500200146E9E7010510196941DDE93B
:10081000084500196941BDE8F04DA2E770B58C1894
:1008200010F8015B15F0070301D110F8013B2A1104
:1008300006D110F8012B03E010F8016B01F8016BF1
:100840005B1EF9D12B0705D40023521E0DD401F8ED
:10085000013BFAE710F8013BCB1A921C03E013F8B6
:10086000015B01F8015B521EF9D5A142D8D30020EB
:1008700070BD10B50446204600F042FD10BD0000DA
:100880003A490A780978491C384B19703849885414
:100890000978552903D000211A4611707047334951
:1008A00009780B2900DAF9E73149497850390A29E2
:1008B00056D2DFE801F0050D151D252D353D454DBE
:1008C0002C492B4A921C13680B6052684A6047E01F
:1008D0002949274A921C13680B6052684A603FE01E
:1008E0002649234A921C13680B6052684A6037E01D
:1008F00023491F4A921C13680B6052684A602FE01C
:1009000020491B4A921C13680B6052684A6027E01A
:100910001D49174A921C13680B6052684A601FE019
:100920001A49134A921C13680B6052684A6017E018
:1009300017490F4A921C13680B6052684A600FE017
:1009400014490B4A921C13680B6052684A6007E016
:100950001149074A921C13680B6052684A6000BF35
:1009600000BF0021014A117000BF97E75A10002014
:10097000801000200010002008100020101000201F
:100980001810002020100020281000203010002017
:100990003810002040100020481000202DE9F041C0
:1009A000024600250026002000230024002791F89D
:1009B00003C00CF00F0591F803C00CF0100CBCF153
:1009C000000F03D091F802C04CEA050591F800C071
:1009D000BCF1000F31D0146800202BE04FF0010C67
:1009E0000CFA00F3B1F800C00CEA03069E4220D1D5
:1009F00083004FF00F0C0CFA03F7BC4305FA03FC1D
:100A00004CEA040491F803C0BCF1280F06D14FF062
:100A1000010C0CFA00FCC2F814C00AE091F803C003
:100A2000BCF1480F05D14FF0010C0CFA00FCC2F8E4
:100A300010C0401C0828D1D31460B1F800C0BCF12C
:100A4000FF0F34DD546800202EE000F1080C4FF059
:100A5000010808FA0CF3B1F800C00CEA03069E4244
:100A600021D183004FF00F0C0CFA03F7BC4305FAB9
:100A700003FC4CEA040491F803C0BCF1280F05D133
:100A800000F1080C08FA0CF8C2F8148091F803C0C1
:100A9000BCF1480F07D100F1080C4FF0010808FA2B
:100AA0000CF8C2F81080401C0828CED35460BDE872
:100AB000F0814161704701617047000010B520214D
:100AC0000748FFF7F8FF80210548FFF7F4FF802172
:100AD0000348FFF7EEFF20210148FFF7EAFF10BDB2
:100AE0000008014010B520210548FFF7E4FF8021F0
:100AF0000348FFF7DEFF80210148FFF7DCFF10BD50
:100B00000008014010B520210348FFF7D4FF202141
:100B10000148FFF7CEFF10BD0008014010B586B0B8
:100B20000446012144F2040000F07EFA4FF4007004
:100B3000ADF8140018208DF8170003208DF816006A
:100B400005A92248FFF72AFF4FF48060ADF8140092
:100B500004208DF8170005A91C48FFF71FFF01941A
:100B60000020ADF80800ADF80A00ADF80C00ADF8B3
:100B700010000C20ADF80E0001A9154800F0D4FCBF
:100B8000002240F22771124800F0A8FC012240F236
:100B900025510F4800F0A2FC40210D4800F050FC08
:100BA00001210B4800F064FC25208DF80000012095
:100BB0008DF8010007208DF8020001208DF8030058
:100BC000684600F061F806B010BD00000008014062
:100BD0000038014010B586B004460121274800F0D6
:100BE00013FA0420ADF8140018208DF81700032024
:100BF0008DF8160005A92248FFF7D0FE0820ADF8B1
:100C0000140004208DF8170005A91D48FFF7C6FE43
:100C100001940020ADF80800ADF80A00ADF80C0012
:100C2000ADF810000C20ADF80E0001A9154800F039
:100C30007BFC002240F22771124800F04FFC012299
:100C400040F225510F4800F049FC40210D4800F0CA
:100C5000F7FB01210B4800F00BFC26208DF800006B
:100C600001208DF8010008208DF8020001208DF888
:100C70000300684600F008F806B010BD040002004A
:100C8000000801400044004070B5002100230F22FD
:100C9000C47804B3154C246804F4E064C4F5E0643B
:100CA000210AC1F10403CA40447804FA03F18478AC
:100CB0001440214309010E4C0678A155047804F034
:100CC0001F050124AC4005786D11AD0005F1E0254C
:100CD000C5F8004109E0047804F01F050124AC4088
:100CE000044D0678761145F8264070BD0CED00E005
:100CF00000E400E080E100E002490143024A1160A3
:100D0000704700000000FA050CED00E070B500240B
:100D100018E004F1B000002100F069F90021084654
:100D200000F065F90021102000F061F9002505E0D0
:100D30000121002000F05BF9681CC5B2802DF7DBB3
:100D4000601CC4B2082CE4DB70BD000008B50121B2
:100D5000042000F069F9A020ADF8000010208DF803
:100D6000030003208DF8020069463C48FFF716FE99
:100D7000A0213A48FFF79FFE4FF4C87001F004F934
:100D80000021AE2000F033F90021084600F02FF9D1
:100D90000021102000F02BF90021402000F027F95D
:100DA0000021B02000F023F90021812000F01FF97C
:100DB0000021FF2000F01BF90021A12000F017F90D
:100DC0000021A62000F013F90021A82000F00FF95F
:100DD00000213F2000F00BF90021C82000F007F9A6
:100DE0000021D32000F003F90021084600F0FFF8AD
:100DF0000021D52000F0FBF80021802000F0F7F85A
:100E00000021D82000F0F3F80021052000F0EFF8D1
:100E10000021D92000F0EBF80021F12000F0E7F8E4
:100E20000021DA2000F0E3F80021122000F0DFF8C2
:100E30000021DB2000F0DBF80021302000F0D7F8A3
:100E400000218D2000F0D3F80021142000F0CFF80D
:100E50000021AF2000F0CBF808BD000000080140E1
:100E600070B504460D4605F1B000002100F0BFF852
:100E7000102141EA1410002100F0B9F804F00F002D
:100E8000002100F0B4F870BD2DE9F04707460E468A
:100E90009046994600250024A8F12000C5B27F2F76
:100EA00002DD0027B01CC6B2B9F1100F24D13146C3
:100EB0003846FFF7D5FF002408E004EB0511194A76
:100EC000505C012100F093F8601CC4B2082CF4DBE4
:100ED000701CC1B23846FFF7C3FF002409E004EBE1
:100EE000051108310F4A505C012100F080F8601CA8
:100EF000C4B2082CF3DB12E031463846FFF7B0FFEE
:100F000000240AE005EB4501074A02EB4101085DB8
:100F1000012100F06CF8601CC4B2062CF2DBBDE8C5
:100F2000F08700005A250008322300082DE9FF5FF2
:100F3000074691461E460E9D4FF0000A002435E0FC
:100F4000301B401EC1B20A2001F0DCF9B9FBF0F001
:100F50000A21B0FBF1F201FB1208BAF1000F14D123
:100F6000701EA04211DDB8F1000F0CD1AB4605EBAD
:100F7000DB71491001FB0471C8B22B462022019994
:100F8000FFF782FF10E04FF0010AAB4605EBDB7183
:100F9000491001FB0471C8B208F13001CAB22B46F6
:100FA0000199FFF771FF00BF601CC4B2B442C7DBF8
:100FB000BDE8FF9F2DE9F04104460F4615469846CF
:100FC00000260FE0AA5D434639462046FFF75CFF46
:100FD00004F10800C4B2782C02DD0024B81CC7B2AA
:100FE000701CC6B2A85D0028ECD1BDE8F08170B5D8
:100FF00004460D461DB1E0B200F046FB02E0E0B24F
:1010000000F02CFB70BD000029B1064AD2690243F2
:10101000044BDA6104E0034AD2698243014BDA618E
:10102000704700000010024029B1064A926902434D
:10103000044B9A6104E0034A92698243014B9A612E
:10104000704700000010024030B50021002200244B
:1010500000232D4D6D6805F00C0121B1042905D048
:10106000082923D105E0294D056022E0274D0560C0
:101070001FE0254D6D6805F47012234D6D6805F471
:101080008034022505EB92421CB9214D5543056081
:101090000BE01D4D6D6805F400351DB11C4D554329
:1010A000056002E0194D5543056002E0174D0560EB
:1010B00000BF00BF144D6D6805F0F0010909154D22
:1010C0006B5C0568DD4045600F4D6D6805F4E061BF
:1010D000090A104D6B5C4568DD4085600A4D6D68FE
:1010E00005F46051C90A0B4D6B5C4568DD40C56075
:1010F000054D6D6805F44041890B074D6B5CC56873
:10110000B5FBF3F5056130BD0010024000127A0016
:1011100000093D00661000207610002010B500F098
:1011200001F810BD0CB50020019000903348006814
:1011300040F480303149086000BF3048006800F456
:10114000003000900198401C0190009818B9019857
:10115000B0F5A06FF1D12948006800F4003010B15B
:101160000120009001E0002000900098012843D168
:101170002348006840F010002149086008460068D4
:1011800020F0030008600846006840F00200086094
:101190001A4840681949486008464068486008464F
:1011A000406840F4806048600846406820F47C1045
:1011B00048600846406840F4E81048600846006807
:1011C00040F08070086000BF0C48006800F00070BC
:1011D0000028F9D00948406820F00300074948601A
:1011E0000846406840F00200486000BF034840687D
:1011F00000F00C000828F9D10CBD000000100240DE
:10120000002002400120054908700548007820B1FF
:1012100003480078401E02490870704760100020A3
:101220006110002038B504460D4600204FF0E02143
:10123000886105FB04F000EB4001C1EBC0104FF0EA
:10124000E021486103200861E11704EB5171C1F30B
:10125000C701114A11701046007800EB4001C1EB44
:10126000C0104FF6FF7101EAC0000C4908804FF42E
:10127000C060FFF741FDFF208DF8000003208DF8CE
:10128000010000208DF8020001208DF8030068465F
:10129000FFF7FAFC38BD00005C1000205E10002053
:1012A00010B51348006840F0010011490860084675
:1012B0004068104908400E494860084600680E49D9
:1012C00008400B4908600846006820F48020086048
:1012D0000846406820F4FE0048604FF41F00886014
:1012E000FFF71CFF4FF000600449086010BD0000CC
:1012F000001002400000FFF8FFFFF6FE08ED00E0DE
:1013000010B50446074801780078401C054A107063
:1013100005484454012240F22771044800F0DEF8E9
:1013200010BD0000651000207A120020004400402B
:1013300010B540F227711C4800F0A6F8E0B11B4838
:1013400002780078401C194B18701948815C1648C7
:1013500000F056F91548007816490978884205D1F9
:10136000002240F22771104800F0B8F840F22771CF
:101370000D4800F06EF810E040F225510A4800F0E8
:1013800083F850B10849091D0988C8B2FFF771FAFE
:1013900040F22551044800F05CF84FF458710248BF
:1013A00000F057F810BD0000003801406210002026
:1013B0007A1100206310002010B540F227711C48FC
:1013C00000F062F8E0B11B4802780078401C194B2D
:1013D00018701948815C164800F012F940F2277124
:1013E000134800F036F81348007814490978884209
:1013F00017D1002240F227710D4800F06FF810E07D
:1014000040F225510A4800F03FF850B10849091D43
:101410000988C8B2FFF734FA40F22551044800F0B9
:1014200018F84FF45871024800F013F810BD00008E
:1014300000440040641000207A1200206510002053
:1014400001F40072B2F5007F00D100BFCA430280F0
:10145000704710B50022002340F66A14A14200D163
:1014600000BF0A1201249440A3B2DC43048010BDE3
:1014700021B1828942F40052828104E082894DF6D2
:10148000FF731A408281704770B502460024002322
:101490000025002040F66A16B14200D100BFC1F31A
:1014A000421501F01F03012606FA03F3012D02D1B4
:1014B0009689334006E0022D02D1168A334001E0BE
:1014C000968A33400C12012606FA04F4168834403A
:1014D00013B10CB1012000E0002070BDF0B503464F
:1014E000002400260025002040F66A17B94200D1EA
:1014F00000BF1846C1F3421401F01F06012707FA86
:1015000006F5012C01D10C3004E0022C01D1103081
:1015100000E014301AB107682F43076002E0076843
:10152000AF430760F0BD00002DE9F04786B00546E7
:101530000E460024A24600BFA1460027B08900B194
:1015400000BF2F462C8A4CF6FF700440F0880443FD
:101550002C82AC894EF6F3100440B08831890843E0
:10156000718908430443AC81AC8A4FF6FF400440C4
:10157000B0890443AC8201A8FFF766FD1F4887428B
:1015800002D1DDF810A001E0DDF80CA0A88900F47C
:10159000004040B10AEBCA0000EB0A103168490074
:1015A000B0FBF1F807E00AEBCA0000EB0A10316863
:1015B0008900B0FBF1F86420B8FBF0F004012009C9
:1015C000642101FB1089A88900F4004040B1322059
:1015D00000EBC900B0FBF1F000F00700044308E0A5
:1015E000322000EB09106421B0FBF1F000F00F0095
:1015F00004432C8106B0BDE8F087000000380140AC
:10160000C1F30802828070472DE9F04105462C465F
:1016100020211148FFF74DFA002619E0274607F070
:101620008007802F04D180210B48FFF744FA03E0A4
:1016300080210948FFF73DFA6006040E2021064884
:10164000FFF739FA20210448FFF733FA701CC6B2BD
:10165000082EE3DBBDE8F0810008014010B5044628
:10166000FFF72CFA7820FFF7CFFFFFF74BFA0020A7
:10167000FFF7CAFFFFF746FA2046FFF7C5FFFFF75F
:1016800041FAFFF72FFA10BD10B50446FFF716FA1E
:101690007820FFF7B9FFFFF735FA4020FFF7B4FFD6
:1016A000FFF730FA2046FFF7AFFFFFF72BFAFFF7FF
:1016B00019FA10BD0FB4054B10B503A9044A0298DE
:1016C00000F0CAF810BC5DF814FB000031200008DF
:1016D0007C10002002E008C8121F08C1002AFAD1BD
:1016E00070477047002001E001C1121F002AFBD1A2
:1016F000704700002DE9FF5FDDE90220010DDDF8F4
:1017000038B0024318D044F61050A1F2FF314143E3
:101710000D140F98012820D0A5EB0B00401C5FEAA8
:10172000000A4FF00004474EDFF81C91A0465046D7
:1017300016D5CAF1000728E00F98012443A201281A
:1017400008D0002100980F9BC0E90021C0E90243A6
:10175000BDE8FF9F6FEA0B01F4E7CBF10000DEE785
:10176000074612E0F80707D022463346404649466E
:10177000FEF7A2FE804689462246334610461946A9
:10178000FEF79AFE04460E467F10002FEAD1DDE9EF
:101790000201BAF1000F42464B4602DAFEF78CFE18
:1017A00001E0FEF7FBFE04460E460022284BFEF742
:1017B0007DFF03D84FF0FF30014607E00022254BA4
:1017C00020463146FEF7D1FDFEF757FF102409E011
:1017D000002C0ADB0A220023FEF75FFD019B30325A
:1017E0001A55641E50EA0102F2D1641C019AC4F138
:1017F000110314440F9A012A03D0012208430DD18A
:101800000AE0084304D000204FF0110B0F9080E74E
:10181000A3EB0B056D1E0DE05B4504DD4FF00002F0
:1018200005F1010504E003DA4FF00002A5F101051E
:10183000002AECD000980F99C0E90231C0E90045B8
:1018400086E70000000024400000F03F3000000068
:101850000000F0430000E03F2DE9FF4F95B09B46AC
:101860008946064600250FE2252877D10024274621
:10187000F84A0121059400E0044316F8013F203B9B
:1018800001FA03F01042F7D130782A2811D06FF016
:101890002F033078A0F13002092A16D8059A44F0B7
:1018A000020402EB820203EB42021044761C059014
:1018B000EFE759F8042B0592002A03DA504244F46A
:1018C0000054059044F00204761C30782E2816D17E
:1018D00016F8010F44F004042A280DD06FF02F02EF
:1018E0003078A0F13003092B09D807EB870302EB0E
:1018F0004303C718761CF3E759F8047B761C30784D
:101900006C280FD006DC4C2817D068280DD06A2828
:1019100014D104E0742810D07A280FD10DE044F4DB
:1019200000140AE044F4801401E044F44014727896
:10193000824202D104F58014761C761C3078662829
:101940000BD013DC582877D009DC002875D0452847
:10195000F6D04628F4D047281AD19DE118E0632834
:1019600035D0642879D0652812D195E1702873D0DC
:1019700008DC6728F1D069286FD06E280DD06F2859
:1019800006D1B5E073282CD0752875D0782874D08E
:101990005A46179990476D1C75E1C4F3025002280E
:1019A00009D003280DD0D9F8001004280DD00D60FF
:1019B00009F1040967E1D9F80010EA17C1E90052FA
:1019C000F6E7D9F800100D80F2E70D70F0E719F88E
:1019D000041B8DF8001000208DF80100EA4601205C
:1019E00003E059F804AB4FF0FF3061074FF00001FE
:1019F00002D40DE008F101018846B9420FDA8045B2
:101A0000F8DB1AF808100029F4D108E008F1010108
:101A100088468142FADB1AF808100029F6D10598A9
:101A20005B46A0EB080721463846179A00F094FA67
:101A3000284400EB080507E04DE029E10DE01AF825
:101A4000010B5A4617999047B8F10108F7D25B4647
:101A500021463846179A13E142E00A220092C4F365
:101A600002524FF0000A022A08D059F804CB032A88
:101A70004FEAEC710AD00DE029E02AE009F10701F4
:101A800021F00702F2E802C1914609E00FFA8CFC4E
:101A90004FEAEC71042A03D14FFA8CFC4FEAEC7147
:101AA000002907DA0A460021DCF1000C61EB020193
:101AB0002D2202E0220504D52B228DF804200122DC
:101AC00003E0E20701D02022F7E7904659E00A211F
:101AD00002E010220DE010214FF0000A00910BE00F
:101AE00010224FF0000A44F004040827009203E09B
:101AF00008224FF0000A0092C4F30252022A05D0D5
:101B000059F804CB0021032A08D009E009F10701A4
:101B100021F00702F2E802C1914605E01FFA8CFCB1
:101B2000042A01D10CF0FF0C4FF00008220728D541
:101B3000702806D0009B83F0100353EA0A0305D0F7
:101B40000EE040228DF80420012208E05CEA010248
:101B500006D030228DF804208DF805000222904630
:101B6000009B83F0080353EA0A030AD15CEA0102EE
:101B700001D1620705D530228DF804204FF001080D
:101B80007F1E582804D034A003900EA802900DE0C8
:101B900036A0F9E753466046009AFEF77EFB84467E
:101BA0000398825C0298401E029002705CEA010079
:101BB000F0D1029806A9081A00F1200A600702D5A0
:101BC00024F4803400E00127574502DDA7EB0A002A
:101BD00000E0002000EB0A01009005984144401A03
:101BE0000590E00306D45B462146179A059800F05D
:101BF000B3F90544002706E001A85A46C05D1799CD
:101C000090476D1C7F1C4745F6DBE0030CD55B4617
:101C10002146179A059800F09FF9054404E030200A
:101C20005A46179990476D1C0099481E009000294C
:101C3000F5DC08E0029802995A460078491C0291A6
:101C4000179990476D1CBAF10001AAF1010AF1DC65
:101C500065E1000009280100303132333435363770
:101C600038396162636465660000000030313233E8
:101C70003435363738394142434445460000000088
:101C800000F058F90544761C307800287FF4ECAD5C
:101C900019B02846BDE8F08F620700D4062709F185
:101CA000070222F0070CFCE80223E14603F000489B
:101CB0005FEA080C02D00FF2702C0DE05FEA045CC2
:101CC00002D50FF2682C07E05FEAC47C02D00FF265
:101CD000602C01E0AFF2700C4FF0FF3823F00043AE
:101CE000CDF850C065280CD006DC452809D0462820
:101CF0001DD047283DD13DE0662818D067287ED109
:101D000038E00021112F01DB112000E0781CCDE923
:101D1000000106A90EA8FFF7EDFCDDE90F010E9A00
:101D200003910021009207F1010A04914DE04FF068
:101D300000400097CDE9011006A90EA8FFF7DAFCD4
:101D4000DDE90F0203920E9B11990022DDF80CA031
:101D50000093049211B9791C00EB010AB7EB0A0059
:101D600004D4C0F1FF3007F1010A0490AAEB070088
:101D7000019044E0012F00DA01270021112F01DD3D
:101D8000112000E03846CDE9000106A90EA8FFF7B2
:101D9000B1FCDDE90F010E9A03910021049100923C
:101DA000BA4621070CD40399514500DA8A46BAF1A4
:101DB000010F05DD009AAAF10101515C302908D01C
:101DC000B84202DA10F1040F06DA0121CDE9011060
:101DD00015E0AAF10101E9E7002805DC04990144B6
:101DE0000491AAEB000102E0411C514500DD8A4646
:101DF0000499401A401C01904FF0004002902007C7
:101E000004D40198504501DBCDF8048000208DF802
:101E10004F0002980DF14F07B0F1004F25D02B2055
:101E20000E9002984FF0020800280CDA404202900F
:101E30002D200E9007E00A210298FEF718FA3031A3
:101E4000029007F8011DB8F10001A8F10108F2DCC9
:101E500002980028EFD1791E0E980870307800F0B3
:101E6000200040F0450007F8020D12A8C01B00F149
:101E700007081498007800B1012000EB0A010198CE
:101E800001EBE07105984144401A401E0590E003C3
:101E900006D45B462146179A059800F05DF8054484
:101EA0001498007818B15A46179990476D1CE003B2
:101EB00024D55B462146179A059800F04DF8054455
:101EC0001CE00498002807DBDDE90301884203DDFC
:101ED0000098405C179901E0179930205A469047C6
:101EE000049805F10105401C04900198401E0190E2
:101EF00004D12E205A46179990476D1CBAF1000163
:101F0000AAF1010ADDDC05E017F8010B5A46179922
:101F100090476D1CB8F10001A8F10108F4DC5B46A4
:101F20002146179A0598ABE62D0000002B00000013
:101F3000200000002DE9F041044600251E4617460A
:101F4000880404D405E039462020B0476D1C641E87
:101F5000F9D52846BDE8F0812DE9F0410446002579
:101F60001E469046C80301D5302700E0202788048C
:101F700004D505E041463846B0476D1C641EF9D5CE
:101F80002846BDE8F081000030B503464FF0E0245C
:101F9000A169254C248803FB04F200204FF0E024C3
:101FA0006469B2FBF4F4214D2C704FF0E0246469B5
:101FB000B2FBF4F504FB1520814215D9081A00BFC5
:101FC0001A4C2478002CFBD10A2806D200BF4FF00F
:101FD000E024A4690A2CFAD824E000BF4FF0E024E2
:101FE000A4698442FAD81DE0104C2478641C0F4D7B
:101FF0002C704FF0E02464690C44201A00BF0B4C95
:102000002478002CFBD10A2806D200BF4FF0E02430
:10201000A4690A2CFAD805E000BF4FF0E024A469B7
:102020008442FAD830BD00005E100020611000200C
:1020300000BF054A128802F04002002AF9D0C2B25D
:10204000014B1B1D1A8070470038014088B00024E6
:102050000A214820FFF7E6F84FF4E130FEF75EFD75
:102060004FF41650FEF7B6FD4FF4A060FEF744FEA5
:10207000FEF76CFEFEF74AFE4FF47A70FFF784FF1E
:102080004FF47A70FFF780FFFFE04FF4FA70FFF72C
:102090007BFF601CC4B2142C12DD00247BA0FFF770
:1020A00009FB804800F039F96420FFF76DFF7E4896
:1020B00000F033F96420FFF767FF7CA0FFF7FAFA1E
:1020C0007F49B1F90000FEF79DF880464FF08E4140
:1020D000FEF75AF807467B49FEF724F8054678498B
:1020E000B1F90200FEF78EF880464FF08E41FEF700
:1020F0004BF807467349FEF715F806467049B1F9E3
:102100000400FEF77FF880464FF08E41FEF73CF862
:1021100007466C49FEF706F881462846FEF794F814
:1021200007463A460B4668A0FFF7C4FA6449B1F97E
:102130000400FEF767F84FF08E410390FEF724F895
:1021400083466049FDF7EEFF8246FEF77DF80746BD
:1021500088465B49B1F90200FEF754F84FF08E4112
:102160000390FEF711F883465649FDF7DBFF8246E0
:10217000FEF76AF8CDE906015149B1F90000FEF712
:1021800041F84FF08E410390FDF7FEFF83464D4925
:10219000FDF7C8FF8246FEF757F8CDE90278CDE992
:1021A0000401DDE90601CDE900014AA0DDE90423CF
:1021B000FFF780FAFEF7AAFD10234CA20021084683
:1021C000FEF7F8FE3046FEF726F8071E4FF0100027
:1021D000009001DB384600E07842024604230021EB
:1021E0003C20FEF7A3FE102342A202210020FEF7AE
:1021F000E1FE2846FEF70FF8071E4FF01000009092
:1022000001DB384600E078420246042302213C20EC
:10221000FEF78CFE102339A204210020FEF7CAFE2F
:102220004846FDF7F8FF071E4FF01000009001DB55
:10223000384600E078420246042319463C20FEF767
:1022400075FE3046FDF7E7FF002805DA10232D2242
:1022500000213220FEF718FE2846FDF7DCFF00289B
:1022600005DA10232D2202213220FEF70DFE48460A
:10227000FDF7D1FF002805DA10232D22042132209A
:10228000FEF702FE0A20FFF77FFEFEE6D5FDD4DA58
:10229000BDF8D0D0BCD3CBD9B6C8D0A3D7BC0D0A1B
:1022A000000000005010002055100020BCD3CBD9F6
:1022B000B6C8D0A3D7BCCDEAB3C90D0A0000000050
:1022C0001810002000003443256620202020202004
:1022D00000000000416E676C653A252E33662025AC
:1022E0002E336620252E33660D0A00007069746354
:1022F000683A0000726F6C6C3A0000007961773ABE
:102300000000000010B50246012000E050430B0021
:10231000A1F10104E1B2F9D110BD70B50546002468
:1023200004E0285DFEF7ECFF601CC4B2052CF8DB6E
:1023300070BD0000000000000000002F0000000041
:102340000700070000147F147F1400242A7F2A123C
:10235000006264081323003649552250000005032B
:10236000000000001C224100000041221C0000145B
:10237000083E08140008083E0808000000A060009D
:10238000000808080808000060600000002010082D
:102390000402003E5149453E0000427F4000004299
:1023A00061514946002141454B31001814127F10FC
:1023B000002745454539003C4A494930000171092B
:1023C000050300364949493600064949291E0000DF
:1023D0003636000000005636000000081422410086
:1023E00000141414141400004122140800020151B6
:1023F000090600324959513E007C1211127C007FBF
:1024000049494936003E41414122007F4141221C59
:10241000007F49494941007F09090901003E4149BE
:10242000497A007F0808087F0000417F41000020B2
:1024300040413F01007F08142241007F404040405E
:10244000007F020C027F007F0408107F003E4141A4
:10245000413E007F09090906003E4151215E007F8F
:10246000091929460046494949310001017F010106
:10247000003F4040403F001F2040201F003F4038A9
:10248000403F0063140814630007087008070061E8
:102490005149454300007F41410000552A552A55C6
:1024A000000041417F00000402010204004040405E
:1024B0004040000001020400002054545478007F82
:1024C0004844443800384444442000384444487F59
:1024D00000385454541800087E0901020018A4A4BE
:1024E000A47C007F080404780000447D4000004084
:1024F00080847D00007F102844000000417F400060
:10250000007C04180478007C0804047800384444F3
:10251000443800FC242424180018242418FC007CCF
:102520000804040800485454542000043F44402048
:10253000003C4040207C001C2040201C003C4030DF
:10254000403C004428102844001CA0A0A07C00446B
:1025500064544C44141414141414000000000000BB
:1025600000000000000000000000000000F8000073
:102570000000000000333000000000100C06100CBA
:102580000600000000000000000040C07840C07855
:102590004000043F04043F040400007088FC08303D
:1025A0000000001820FF211E0000F008F000E018D5
:1025B000000000211C031E211E0000F0088870008E
:1025C00000001E2123241927211010160E000000E0
:1025D00000000000000000000000000000E01804FF
:1025E0000200000000071820400000020418E0006C
:1025F00000000040201807000000404080F08040AC
:1026000040000202010F01020200000000F0000081
:1026100000000101011F0101010000000000000095
:10262000000080B07000000000000000000000000A
:102630000000000101010101010100000000000093
:10264000000000303000000000000000000080604A
:102650001804006018060100000000E010080810CF
:10266000E000000F102020100F00001010F80000F4
:1026700000000020203F202000000070080808888B
:10268000700000302824222130000030088888485B
:1026900030000018202020110E000000C02010F88B
:1026A000000000070424243F240000F8088888085C
:1026B00008000019212020110E0000E01088881861
:1026C0000000000F112020110E0000380808C83843
:1026D00008000000003F0000000000708808088823
:1026E0007000001C222121221C0000E010080810AC
:1026F000E0000000312222110F00000000C0C000E5
:1027000000000000003030000000000000800000E9
:1027100000000000806000000000000080402010E9
:1027200008000001020408102000404040404040E2
:102730004000040404040404040000081020408045
:10274000000000201008040201000070480808087A
:10275000F0000000003036010000C030C828E8104A
:10276000E0000718272423140B000000C038E00005
:102770000000203C23020227382008F8888888704F
:102780000000203F202020110E00C030080808085B
:102790003800071820202010080008F80808081042
:1027A000E000203F202020100F0008F88888E8086B
:1027B0001000203F20202320180008F88888E8080F
:1027C0001000203F200003000000C0300808083837
:1027D000000007182020221E020008F80800000848
:1027E000F808203F210101213F20000808F80808CF
:1027F00000000020203F2020000000000808F8080A
:102800000800C08080807F00000008F888C0281879
:102810000800203F20012638200008F808000000AA
:102820000000203F20202020300008F8F800F8F8B1
:102830000800203F003F003F200008F830C000089B
:10284000F808203F200007183F00E0100808081093
:10285000E0000F10202020100F0008F808080808DA
:10286000F000203F210101010000E01008080810DD
:10287000E0000F18242438504F0008F88888888812
:102880007000203F2000030C3020007088080808EA
:1028900038000038202121221C00180808F80808F8
:1028A00018000000203F2000000008F80800000881
:1028B000F808001F202020201F000878880000C88A
:1028C0003808000007380E010000F80800F800087A
:1028D000F800033C0700073C030008186880806884
:1028E000180820302C03032C30200838C800C838C2
:1028F00008000000203F2000000010080808C83829
:1029000008002038262120201800000000FE0202C6
:1029100002000000007F40404000000C30C000007A
:102920000000000000010638C00000020202FE00A4
:102930000000004040407F0000000000040202024E
:102940000400000000000000000000000000000083
:10295000000080808080808080800002020400006F
:102960000000000000000000000000008080808067
:1029700000000019242222223F2008F80080800055
:102980000000003F112020110E0000000080808018
:102990000000000E1120202011000000008080881F
:1029A000F800000E112020103F2000008080808061
:1029B0000000001F222222221300008080F088885D
:1029C00088180020203F20200000000080808080A8
:1029D0008000006B94949493600008F800808080DD
:1029E0000000203F210000203F2000809898000038
:1029F00000000020203F2020000000000080989868
:102A0000000000C08080807F000008F80000808007
:102A10008000203F24022D302000000808F800002C
:102A200000000020203F20200000808080808080E7
:102A30008000203F20003F20003F80800080808079
:102A40000000203F210000203F2000008080808087
:102A50000000001F202020201F00808000808000B8
:102A6000000080FFA12020110E0000000080808067
:102A70008000000E112020A0FF80808080008080D8
:102A8000800020203F212000010000008080808005
:102A900080000033242424241900008080E08080FA
:102AA00000000000001F2020000080800000008047
:102AB0008000001F202020103F20808080000080A8
:102AC000808000010E3008060100808000800080B8
:102AD00080800F300C030C300F000080800080805D
:102AE00080000020312E0E31200080808000008088
:102AF000808080818E701806010000808080808038
:102B000080000021302C2221300000000000807C59
:102B1000020200000000003F404000000000FF00F3
:102B2000000000000000FF0000000002027C8000A6
:102B300000000040403F00000000000601010202CA
:102B40000404000000000000000000006C2B0008DE
:102B500000000020801000001C080008F02F000872
:102B60008010002000070000E416000811100A037E
:102B7000050911FF118905C312E012F072F8073D33
:102B80004428FF11AA44700B830138448292927446
:102B9000018328087C44FF017D7D7D044905647D17
:102BA00001FF9A0102818A010B013669419949FAB4
:102BB0000101011D38083F3F0303F31311011E01FA
:102BC000F1116181312D816111F1393B4141072CB6
:102BD00001C1211EAB21C114390139360738D33365
:102BE00003033F3F23E0E06A7FA81A7FBF4C06182B
:102BF000060A213640407F40401C1F204001AB2088
:102C00001F14113A600E6C300C034601361C070786
:102C1000060178090404048444444484071C0484A1
:102C2000C405790E09110A791129400341070726C5
:102C300010181412112E0F1010100F0F331F102622
:102C4000081012120D22186B0D120A59295907018A
:102C5000605A8001013D20087F030C300C037F2562
:102C600038545458257C04047805223C40407C1795
:102C7000FFAAAAAA28080A2CFF681E264949493239
:102C8000101D020408100F100A060A1222FE22125A
:102C90000A8612C012E052F016F8040202045EFE28
:102CA000040804FE0C490641678850FE22548870CF
:102CB0000C10084424129212244408105EFCFA7688
:102CC000AEDE01B5AE76FAFCB808F88888FE02FAE6
:102CD000FA0362FE9A0302513D010202010C19043B
:102CE000390C5906492E790A392BBA030E9B020377
:102CF00001B929393AD901596F011B2009C0603047
:102D0000180C06FFFF7BFEFF583AFFB84360608C4B
:102D1000FEFFC301091126014529809AFF5A190FA8
:102D2000213B1818A1DAC026B90F01411A800121F0
:102D30001E0383808081792B83837F1C838381148E
:102D400059203A83141906190722016A010CB92681
:102D50000139172130282422211B1F2001121F16A0
:102D600021203F20201B1F2401221F23303059190E
:102D700039130A131913015F5A8001013910087FB2
:102D800002040804027F38081C2A4949494A2410D1
:102D90001C10207FC71C404040C8091E3F162A2A2D
:102DA0002A08080A267F671A26667C494932670185
:102DB0002617FC44C44448305AFC0E111AFC3C1A35
:102DC00040F4A90A9C04FC040E1DF008044401020E
:102DD00046C822072C0102040419012B02011031FC
:102DE0009C0102070A9C0407040E392B4B020111B7
:102DF000013C6EF0F80C06030145079EF8F07BFFDE
:102E0000FF132901611D38FCFEFF016EFEFEFCFC74
:102E1000FE0A0241384FC1E367361C1801461C36D2
:102E200063C1808B0F0F943C060EFC9429F90011AE
:102E3000430307070F1F1F3F7F3F1F1F0F07070396
:102E4000017D1F3F60C0013560703F1F8C183870D6
:102E5000155560303F0F16FE100808F04AF00619AD
:102E6000053909015AAD80C040C00F12801B010115
:102E7000F13A070649033904094770300A40300C1B
:102E80000601010678802CC038065C3C031CE01B60
:102E90001C700C030D2B0C301B110C4AF00C02782B
:102EA000718953A507181807190E398B4925055F35
:102EB0000E10100F680B8080C040202030101008CA
:102EC00001000F5510103030202060404040C0807D
:102ED0008080180AC06018080406020201011982E5
:102EE000011B080A4A01010302040C081060893B17
:102EF000FE0FF83809C0E0E0F0F8FCFEFF012AFE02
:102F0000016AFC017AF8015AF079044981CF381836
:102F100008033FE0804FE7F7012CB717B707380ADF
:102F2000F7EF1F9FDFDFDF1F6F0D69152A6F14009A
:102F30000B4CDFCFE0F0E002874549306808010321
:102F40000F1E3E7DFD01780BDE9E9F1F1F1F9F9F62
:102F50009EDE13000F58FDFCFEFE7F7F3F1F0F0F0C
:102F6000070703011E0101030307017A0F01290E60
:102F70000E4F030303010174671E3F7FCECC800018
:102F80000B112424244C4888101060C0101208280B
:102F90002CE466765858D0D8585662E62424202867
:102FA0000E202C24E4665E58D8D8585E76E21109CB
:102FB00039F0200B030306060E0E0F0F0E0432032A
:102FC000290401111B0F12012B1313057B100C1286
:102FD0005911591201661DFFAA0101050912CA2CD7
:102FE0000203040460090607080902040608000039
:04000005080000ED02
:00000001FF
